{
  "contracts/counter/SimpleCounter.sol": {
    "SimpleCounter": {
      "abi": [
        {
          "inputs": [
            {
              "internalType": "address",
              "name": "timely",
              "type": "address"
            }
          ],
          "stateMutability": "nonpayable",
          "type": "constructor"
        },
        {
          "inputs": [
            {
              "internalType": "address",
              "name": "router",
              "type": "address"
            }
          ],
          "name": "InvalidRouter",
          "type": "error"
        },
        {
          "inputs": [],
          "name": "getCount",
          "outputs": [
            {
              "internalType": "uint256",
              "name": "",
              "type": "uint256"
            }
          ],
          "stateMutability": "view",
          "type": "function"
        },
        {
          "inputs": [],
          "name": "getTimely",
          "outputs": [
            {
              "internalType": "address",
              "name": "",
              "type": "address"
            }
          ],
          "stateMutability": "view",
          "type": "function"
        },
        {
          "inputs": [],
          "name": "start",
          "outputs": [],
          "stateMutability": "nonpayable",
          "type": "function"
        },
        {
          "inputs": [
            {
              "components": [
                {
                  "internalType": "bytes32",
                  "name": "identifier",
                  "type": "bytes32"
                },
                {
                  "internalType": "uint64",
                  "name": "index",
                  "type": "uint64"
                }
              ],
              "internalType": "struct Data.TimePayloadIn",
              "name": "timePayload",
              "type": "tuple"
            }
          ],
          "name": "timelyCallback",
          "outputs": [],
          "stateMutability": "nonpayable",
          "type": "function"
        },
        {
          "inputs": [
            {
              "internalType": "bytes32",
              "name": "identifier",
              "type": "bytes32"
            }
          ],
          "name": "timelyMiddleware",
          "outputs": [
            {
              "internalType": "bool",
              "name": "",
              "type": "bool"
            }
          ],
          "stateMutability": "view",
          "type": "function"
        }
      ],
      "evm": {
        "bytecode": {
          "linkReferences": {},
          "object": "60a0346100ac57601f61085a38819003918201601f19168301916001600160401b038311848410176100b1578084926020946040528339810103126100ac57516001600160a01b038116908181036100ac57811561009357608052600080546001600160a01b03191691909117905560405161079290816100c8823960805181818160870152818161018401526104ad0152f35b6040516335fdcccd60e21b815260006004820152602490fd5b600080fd5b634e487b7160e01b600052604160045260246000fdfe608060408181526004918236101561001657600080fd5b600092833560e01c9182633076315a146106d457508163308d6c9614610482578163a87d942c14610463578163be9a6555146100af575063efc48f061461005c57600080fd5b346100ab57816003193601126100ab576020905173ffffffffffffffffffffffffffffffffffffffff7f0000000000000000000000000000000000000000000000000000000000000000168152f35b5080fd5b9050346103695782600319360112610369576002546104215773ffffffffffffffffffffffffffffffffffffffff8084541683519163127e8e4d60e01b8352600a848401528560209360249385828681845afa9182156103a0578791879185946103e7575b508951928380927f8bc048ac0000000000000000000000000000000000000000000000000000000082525afa80156103a057848791859384916103aa575b506044908b5194859384927f095ea7b30000000000000000000000000000000000000000000000000000000084528d827f00000000000000000000000000000000000000000000000000000000000000001690850152888c850152165af180156103a05761036d575b508282541690813b156103695782918583928a5194859384927fb6b55f250000000000000000000000000000000000000000000000000000000084528c8401525af1801561035f57610347575b505084519367ffffffffffffffff9260a08601848111878210176103335787528786528486016001815287870183815260608801918a83526080890195600187528b5416968a51997f02fd39dc000000000000000000000000000000000000000000000000000000008b525116858a0152516102838161073c565b8389015251600f8110156103215760448801525191601983101561031057505084878594829460a4946064850152516102bb8161073c565b60848401525af1928315610307575083926102d9575b505060025580f35b90809250813d8311610300575b6102f0818361071a565b810103126100ab575138806102d1565b503d6102e6565b513d85823e3d90fd5b60218991634e487b7160e01b835252fd5b828a602186634e487b7160e01b835252fd5b50604182634e487b7160e01b600052526000fd5b610350906106f0565b61035b578538610208565b8580fd5b87513d84823e3d90fd5b8280fd5b8581813d8311610399575b610382818361071a565b810103126103695751801515036100ab57386101bb565b503d610378565b88513d85823e3d90fd5b9350505081813d83116103e0575b6103c2818361071a565b81010312610369575183811681036103695785846044859390610152565b503d6103b8565b94509250905082813d831161041a575b610401818361071a565b810103126104155785858993519238610114565b600080fd5b503d6103f7565b6020606492519162461bcd60e51b8352820152601760248201527f436f756e74657220616c7261647920737461727465642e0000000000000000006044820152fd5b5050346100ab57816003193601126100ab576020906001549051908152f35b8383346100ab57806003193601126100ab5773ffffffffffffffffffffffffffffffffffffffff33817f000000000000000000000000000000000000000000000000000000000000000016036106a55760025490843582036106625783541690825163127e8e4d60e01b815260018682015260208082602481875afa918215610658578692610629575b5084517f70a0823100000000000000000000000000000000000000000000000000000000815230888201528181602481885afa91821561061f5787926105f1575b505010610582575b50505090600154906001820180921161056f575060015580f35b826011602492634e487b7160e01b835252fd5b813b156105ed578291602485949285935195869384927fc4d252f50000000000000000000000000000000000000000000000000000000084528a8401525af19081156105e457506105d5575b8080610555565b6105de906106f0565b826105ce565b513d84823e3d90fd5b8380fd5b90809250813d8311610618575b610608818361071a565b8101031261035b5751878061054d565b503d6105fe565b86513d89823e3d90fd5b9080925081813d8311610651575b610641818361071a565b8101031261035b5751908761050c565b503d610637565b85513d88823e3d90fd5b606485602085519162461bcd60e51b8352820152601360248201527f496e76616c6964206964656e7469666965722e000000000000000000000000006044820152fd5b81517fd7f733340000000000000000000000000000000000000000000000000000000081523381860152602490fd5b8490346100ab5760203660031901126100ab5780600160209252f35b67ffffffffffffffff811161070457604052565b634e487b7160e01b600052604160045260246000fd5b90601f8019910116810190811067ffffffffffffffff82111761070457604052565b6002111561074657565b634e487b7160e01b600052602160045260246000fdfea2646970667358221220aec3f1fd0f24952d80b01c42b9130a5e7984f635a9a79f553e6978eae928860164736f6c63430008180033",
          "opcodes": "PUSH1 0xA0 CALLVALUE PUSH2 0xAC JUMPI PUSH1 0x1F PUSH2 0x85A CODESIZE DUP2 SWAP1 SUB SWAP2 DUP3 ADD PUSH1 0x1F NOT AND DUP4 ADD SWAP2 PUSH1 0x1 PUSH1 0x1 PUSH1 0x40 SHL SUB DUP4 GT DUP5 DUP5 LT OR PUSH2 0xB1 JUMPI DUP1 DUP5 SWAP3 PUSH1 0x20 SWAP5 PUSH1 0x40 MSTORE DUP4 CODECOPY DUP2 ADD SUB SLT PUSH2 0xAC JUMPI MLOAD PUSH1 0x1 PUSH1 0x1 PUSH1 0xA0 SHL SUB DUP2 AND SWAP1 DUP2 DUP2 SUB PUSH2 0xAC JUMPI DUP2 ISZERO PUSH2 0x93 JUMPI PUSH1 0x80 MSTORE PUSH1 0x0 DUP1 SLOAD PUSH1 0x1 PUSH1 0x1 PUSH1 0xA0 SHL SUB NOT AND SWAP2 SWAP1 SWAP2 OR SWAP1 SSTORE PUSH1 0x40 MLOAD PUSH2 0x792 SWAP1 DUP2 PUSH2 0xC8 DUP3 CODECOPY PUSH1 0x80 MLOAD DUP2 DUP2 DUP2 PUSH1 0x87 ADD MSTORE DUP2 DUP2 PUSH2 0x184 ADD MSTORE PUSH2 0x4AD ADD MSTORE RETURN JUMPDEST PUSH1 0x40 MLOAD PUSH4 0x35FDCCCD PUSH1 0xE2 SHL DUP2 MSTORE PUSH1 0x0 PUSH1 0x4 DUP3 ADD MSTORE PUSH1 0x24 SWAP1 REVERT JUMPDEST PUSH1 0x0 DUP1 REVERT JUMPDEST PUSH4 0x4E487B71 PUSH1 0xE0 SHL PUSH1 0x0 MSTORE PUSH1 0x41 PUSH1 0x4 MSTORE PUSH1 0x24 PUSH1 0x0 REVERT INVALID PUSH1 0x80 PUSH1 0x40 DUP2 DUP2 MSTORE PUSH1 0x4 SWAP2 DUP3 CALLDATASIZE LT ISZERO PUSH2 0x16 JUMPI PUSH1 0x0 DUP1 REVERT JUMPDEST PUSH1 0x0 SWAP3 DUP4 CALLDATALOAD PUSH1 0xE0 SHR SWAP2 DUP3 PUSH4 0x3076315A EQ PUSH2 0x6D4 JUMPI POP DUP2 PUSH4 0x308D6C96 EQ PUSH2 0x482 JUMPI DUP2 PUSH4 0xA87D942C EQ PUSH2 0x463 JUMPI DUP2 PUSH4 0xBE9A6555 EQ PUSH2 0xAF JUMPI POP PUSH4 0xEFC48F06 EQ PUSH2 0x5C JUMPI PUSH1 0x0 DUP1 REVERT JUMPDEST CALLVALUE PUSH2 0xAB JUMPI DUP2 PUSH1 0x3 NOT CALLDATASIZE ADD SLT PUSH2 0xAB JUMPI PUSH1 0x20 SWAP1 MLOAD PUSH20 0xFFFFFFFFFFFFFFFFFFFFFFFFFFFFFFFFFFFFFFFF PUSH32 0x0 AND DUP2 MSTORE RETURN JUMPDEST POP DUP1 REVERT JUMPDEST SWAP1 POP CALLVALUE PUSH2 0x369 JUMPI DUP3 PUSH1 0x3 NOT CALLDATASIZE ADD SLT PUSH2 0x369 JUMPI PUSH1 0x2 SLOAD PUSH2 0x421 JUMPI PUSH20 0xFFFFFFFFFFFFFFFFFFFFFFFFFFFFFFFFFFFFFFFF DUP1 DUP5 SLOAD AND DUP4 MLOAD SWAP2 PUSH4 0x127E8E4D PUSH1 0xE0 SHL DUP4 MSTORE PUSH1 0xA DUP5 DUP5 ADD MSTORE DUP6 PUSH1 0x20 SWAP4 PUSH1 0x24 SWAP4 DUP6 DUP3 DUP7 DUP2 DUP5 GAS STATICCALL SWAP2 DUP3 ISZERO PUSH2 0x3A0 JUMPI DUP8 SWAP2 DUP8 SWAP2 DUP6 SWAP5 PUSH2 0x3E7 JUMPI JUMPDEST POP DUP10 MLOAD SWAP3 DUP4 DUP1 SWAP3 PUSH32 0x8BC048AC00000000000000000000000000000000000000000000000000000000 DUP3 MSTORE GAS STATICCALL DUP1 ISZERO PUSH2 0x3A0 JUMPI DUP5 DUP8 SWAP2 DUP6 SWAP4 DUP5 SWAP2 PUSH2 0x3AA JUMPI JUMPDEST POP PUSH1 0x44 SWAP1 DUP12 MLOAD SWAP5 DUP6 SWAP4 DUP5 SWAP3 PUSH32 0x95EA7B300000000000000000000000000000000000000000000000000000000 DUP5 MSTORE DUP14 DUP3 PUSH32 0x0 AND SWAP1 DUP6 ADD MSTORE DUP9 DUP13 DUP6 ADD MSTORE AND GAS CALL DUP1 ISZERO PUSH2 0x3A0 JUMPI PUSH2 0x36D JUMPI JUMPDEST POP DUP3 DUP3 SLOAD AND SWAP1 DUP2 EXTCODESIZE ISZERO PUSH2 0x369 JUMPI DUP3 SWAP2 DUP6 DUP4 SWAP3 DUP11 MLOAD SWAP5 DUP6 SWAP4 DUP5 SWAP3 PUSH32 0xB6B55F2500000000000000000000000000000000000000000000000000000000 DUP5 MSTORE DUP13 DUP5 ADD MSTORE GAS CALL DUP1 ISZERO PUSH2 0x35F JUMPI PUSH2 0x347 JUMPI JUMPDEST POP POP DUP5 MLOAD SWAP4 PUSH8 0xFFFFFFFFFFFFFFFF SWAP3 PUSH1 0xA0 DUP7 ADD DUP5 DUP2 GT DUP8 DUP3 LT OR PUSH2 0x333 JUMPI DUP8 MSTORE DUP8 DUP7 MSTORE DUP5 DUP7 ADD PUSH1 0x1 DUP2 MSTORE DUP8 DUP8 ADD DUP4 DUP2 MSTORE PUSH1 0x60 DUP9 ADD SWAP2 DUP11 DUP4 MSTORE PUSH1 0x80 DUP10 ADD SWAP6 PUSH1 0x1 DUP8 MSTORE DUP12 SLOAD AND SWAP7 DUP11 MLOAD SWAP10 PUSH32 0x2FD39DC00000000000000000000000000000000000000000000000000000000 DUP12 MSTORE MLOAD AND DUP6 DUP11 ADD MSTORE MLOAD PUSH2 0x283 DUP2 PUSH2 0x73C JUMP JUMPDEST DUP4 DUP10 ADD MSTORE MLOAD PUSH1 0xF DUP2 LT ISZERO PUSH2 0x321 JUMPI PUSH1 0x44 DUP9 ADD MSTORE MLOAD SWAP2 PUSH1 0x19 DUP4 LT ISZERO PUSH2 0x310 JUMPI POP POP DUP5 DUP8 DUP6 SWAP5 DUP3 SWAP5 PUSH1 0xA4 SWAP5 PUSH1 0x64 DUP6 ADD MSTORE MLOAD PUSH2 0x2BB DUP2 PUSH2 0x73C JUMP JUMPDEST PUSH1 0x84 DUP5 ADD MSTORE GAS CALL SWAP3 DUP4 ISZERO PUSH2 0x307 JUMPI POP DUP4 SWAP3 PUSH2 0x2D9 JUMPI JUMPDEST POP POP PUSH1 0x2 SSTORE DUP1 RETURN JUMPDEST SWAP1 DUP1 SWAP3 POP DUP2 RETURNDATASIZE DUP4 GT PUSH2 0x300 JUMPI JUMPDEST PUSH2 0x2F0 DUP2 DUP4 PUSH2 0x71A JUMP JUMPDEST DUP2 ADD SUB SLT PUSH2 0xAB JUMPI MLOAD CODESIZE DUP1 PUSH2 0x2D1 JUMP JUMPDEST POP RETURNDATASIZE PUSH2 0x2E6 JUMP JUMPDEST MLOAD RETURNDATASIZE DUP6 DUP3 RETURNDATACOPY RETURNDATASIZE SWAP1 REVERT JUMPDEST PUSH1 0x21 DUP10 SWAP2 PUSH4 0x4E487B71 PUSH1 0xE0 SHL DUP4 MSTORE MSTORE REVERT JUMPDEST DUP3 DUP11 PUSH1 0x21 DUP7 PUSH4 0x4E487B71 PUSH1 0xE0 SHL DUP4 MSTORE MSTORE REVERT JUMPDEST POP PUSH1 0x41 DUP3 PUSH4 0x4E487B71 PUSH1 0xE0 SHL PUSH1 0x0 MSTORE MSTORE PUSH1 0x0 REVERT JUMPDEST PUSH2 0x350 SWAP1 PUSH2 0x6F0 JUMP JUMPDEST PUSH2 0x35B JUMPI DUP6 CODESIZE PUSH2 0x208 JUMP JUMPDEST DUP6 DUP1 REVERT JUMPDEST DUP8 MLOAD RETURNDATASIZE DUP5 DUP3 RETURNDATACOPY RETURNDATASIZE SWAP1 REVERT JUMPDEST DUP3 DUP1 REVERT JUMPDEST DUP6 DUP2 DUP2 RETURNDATASIZE DUP4 GT PUSH2 0x399 JUMPI JUMPDEST PUSH2 0x382 DUP2 DUP4 PUSH2 0x71A JUMP JUMPDEST DUP2 ADD SUB SLT PUSH2 0x369 JUMPI MLOAD DUP1 ISZERO ISZERO SUB PUSH2 0xAB JUMPI CODESIZE PUSH2 0x1BB JUMP JUMPDEST POP RETURNDATASIZE PUSH2 0x378 JUMP JUMPDEST DUP9 MLOAD RETURNDATASIZE DUP6 DUP3 RETURNDATACOPY RETURNDATASIZE SWAP1 REVERT JUMPDEST SWAP4 POP POP POP DUP2 DUP2 RETURNDATASIZE DUP4 GT PUSH2 0x3E0 JUMPI JUMPDEST PUSH2 0x3C2 DUP2 DUP4 PUSH2 0x71A JUMP JUMPDEST DUP2 ADD SUB SLT PUSH2 0x369 JUMPI MLOAD DUP4 DUP2 AND DUP2 SUB PUSH2 0x369 JUMPI DUP6 DUP5 PUSH1 0x44 DUP6 SWAP4 SWAP1 PUSH2 0x152 JUMP JUMPDEST POP RETURNDATASIZE PUSH2 0x3B8 JUMP JUMPDEST SWAP5 POP SWAP3 POP SWAP1 POP DUP3 DUP2 RETURNDATASIZE DUP4 GT PUSH2 0x41A JUMPI JUMPDEST PUSH2 0x401 DUP2 DUP4 PUSH2 0x71A JUMP JUMPDEST DUP2 ADD SUB SLT PUSH2 0x415 JUMPI DUP6 DUP6 DUP10 SWAP4 MLOAD SWAP3 CODESIZE PUSH2 0x114 JUMP JUMPDEST PUSH1 0x0 DUP1 REVERT JUMPDEST POP RETURNDATASIZE PUSH2 0x3F7 JUMP JUMPDEST PUSH1 0x20 PUSH1 0x64 SWAP3 MLOAD SWAP2 PUSH3 0x461BCD PUSH1 0xE5 SHL DUP4 MSTORE DUP3 ADD MSTORE PUSH1 0x17 PUSH1 0x24 DUP3 ADD MSTORE PUSH32 0x436F756E74657220616C7261647920737461727465642E000000000000000000 PUSH1 0x44 DUP3 ADD MSTORE REVERT JUMPDEST POP POP CALLVALUE PUSH2 0xAB JUMPI DUP2 PUSH1 0x3 NOT CALLDATASIZE ADD SLT PUSH2 0xAB JUMPI PUSH1 0x20 SWAP1 PUSH1 0x1 SLOAD SWAP1 MLOAD SWAP1 DUP2 MSTORE RETURN JUMPDEST DUP4 DUP4 CALLVALUE PUSH2 0xAB JUMPI DUP1 PUSH1 0x3 NOT CALLDATASIZE ADD SLT PUSH2 0xAB JUMPI PUSH20 0xFFFFFFFFFFFFFFFFFFFFFFFFFFFFFFFFFFFFFFFF CALLER DUP2 PUSH32 0x0 AND SUB PUSH2 0x6A5 JUMPI PUSH1 0x2 SLOAD SWAP1 DUP5 CALLDATALOAD DUP3 SUB PUSH2 0x662 JUMPI DUP4 SLOAD AND SWAP1 DUP3 MLOAD PUSH4 0x127E8E4D PUSH1 0xE0 SHL DUP2 MSTORE PUSH1 0x1 DUP7 DUP3 ADD MSTORE PUSH1 0x20 DUP1 DUP3 PUSH1 0x24 DUP2 DUP8 GAS STATICCALL SWAP2 DUP3 ISZERO PUSH2 0x658 JUMPI DUP7 SWAP3 PUSH2 0x629 JUMPI JUMPDEST POP DUP5 MLOAD PUSH32 0x70A0823100000000000000000000000000000000000000000000000000000000 DUP2 MSTORE ADDRESS DUP9 DUP3 ADD MSTORE DUP2 DUP2 PUSH1 0x24 DUP2 DUP9 GAS STATICCALL SWAP2 DUP3 ISZERO PUSH2 0x61F JUMPI DUP8 SWAP3 PUSH2 0x5F1 JUMPI JUMPDEST POP POP LT PUSH2 0x582 JUMPI JUMPDEST POP POP POP SWAP1 PUSH1 0x1 SLOAD SWAP1 PUSH1 0x1 DUP3 ADD DUP1 SWAP3 GT PUSH2 0x56F JUMPI POP PUSH1 0x1 SSTORE DUP1 RETURN JUMPDEST DUP3 PUSH1 0x11 PUSH1 0x24 SWAP3 PUSH4 0x4E487B71 PUSH1 0xE0 SHL DUP4 MSTORE MSTORE REVERT JUMPDEST DUP2 EXTCODESIZE ISZERO PUSH2 0x5ED JUMPI DUP3 SWAP2 PUSH1 0x24 DUP6 SWAP5 SWAP3 DUP6 SWAP4 MLOAD SWAP6 DUP7 SWAP4 DUP5 SWAP3 PUSH32 0xC4D252F500000000000000000000000000000000000000000000000000000000 DUP5 MSTORE DUP11 DUP5 ADD MSTORE GAS CALL SWAP1 DUP2 ISZERO PUSH2 0x5E4 JUMPI POP PUSH2 0x5D5 JUMPI JUMPDEST DUP1 DUP1 PUSH2 0x555 JUMP JUMPDEST PUSH2 0x5DE SWAP1 PUSH2 0x6F0 JUMP JUMPDEST DUP3 PUSH2 0x5CE JUMP JUMPDEST MLOAD RETURNDATASIZE DUP5 DUP3 RETURNDATACOPY RETURNDATASIZE SWAP1 REVERT JUMPDEST DUP4 DUP1 REVERT JUMPDEST SWAP1 DUP1 SWAP3 POP DUP2 RETURNDATASIZE DUP4 GT PUSH2 0x618 JUMPI JUMPDEST PUSH2 0x608 DUP2 DUP4 PUSH2 0x71A JUMP JUMPDEST DUP2 ADD SUB SLT PUSH2 0x35B JUMPI MLOAD DUP8 DUP1 PUSH2 0x54D JUMP JUMPDEST POP RETURNDATASIZE PUSH2 0x5FE JUMP JUMPDEST DUP7 MLOAD RETURNDATASIZE DUP10 DUP3 RETURNDATACOPY RETURNDATASIZE SWAP1 REVERT JUMPDEST SWAP1 DUP1 SWAP3 POP DUP2 DUP2 RETURNDATASIZE DUP4 GT PUSH2 0x651 JUMPI JUMPDEST PUSH2 0x641 DUP2 DUP4 PUSH2 0x71A JUMP JUMPDEST DUP2 ADD SUB SLT PUSH2 0x35B JUMPI MLOAD SWAP1 DUP8 PUSH2 0x50C JUMP JUMPDEST POP RETURNDATASIZE PUSH2 0x637 JUMP JUMPDEST DUP6 MLOAD RETURNDATASIZE DUP9 DUP3 RETURNDATACOPY RETURNDATASIZE SWAP1 REVERT JUMPDEST PUSH1 0x64 DUP6 PUSH1 0x20 DUP6 MLOAD SWAP2 PUSH3 0x461BCD PUSH1 0xE5 SHL DUP4 MSTORE DUP3 ADD MSTORE PUSH1 0x13 PUSH1 0x24 DUP3 ADD MSTORE PUSH32 0x496E76616C6964206964656E7469666965722E00000000000000000000000000 PUSH1 0x44 DUP3 ADD MSTORE REVERT JUMPDEST DUP2 MLOAD PUSH32 0xD7F7333400000000000000000000000000000000000000000000000000000000 DUP2 MSTORE CALLER DUP2 DUP7 ADD MSTORE PUSH1 0x24 SWAP1 REVERT JUMPDEST DUP5 SWAP1 CALLVALUE PUSH2 0xAB JUMPI PUSH1 0x20 CALLDATASIZE PUSH1 0x3 NOT ADD SLT PUSH2 0xAB JUMPI DUP1 PUSH1 0x1 PUSH1 0x20 SWAP3 MSTORE RETURN JUMPDEST PUSH8 0xFFFFFFFFFFFFFFFF DUP2 GT PUSH2 0x704 JUMPI PUSH1 0x40 MSTORE JUMP JUMPDEST PUSH4 0x4E487B71 PUSH1 0xE0 SHL PUSH1 0x0 MSTORE PUSH1 0x41 PUSH1 0x4 MSTORE PUSH1 0x24 PUSH1 0x0 REVERT JUMPDEST SWAP1 PUSH1 0x1F DUP1 NOT SWAP2 ADD AND DUP2 ADD SWAP1 DUP2 LT PUSH8 0xFFFFFFFFFFFFFFFF DUP3 GT OR PUSH2 0x704 JUMPI PUSH1 0x40 MSTORE JUMP JUMPDEST PUSH1 0x2 GT ISZERO PUSH2 0x746 JUMPI JUMP JUMPDEST PUSH4 0x4E487B71 PUSH1 0xE0 SHL PUSH1 0x0 MSTORE PUSH1 0x21 PUSH1 0x4 MSTORE PUSH1 0x24 PUSH1 0x0 REVERT INVALID LOG2 PUSH5 0x6970667358 0x22 SLT KECCAK256 0xAE 0xC3 CALL REVERT 0xF 0x24 SWAP6 0x2D DUP1 0xB0 SHR TIMESTAMP 0xB9 SGT EXP MCOPY PUSH26 0x84F635A9A79F553E6978EAE928860164736F6C63430008180033 "
        },
        "methodIdentifiers": {
          "getCount()": "a87d942c",
          "getTimely()": "efc48f06",
          "start()": "be9a6555",
          "timelyCallback((bytes32,uint64))": "308d6c96",
          "timelyMiddleware(bytes32)": "3076315a"
        }
      }
    }
  }
}