{
  "contracts/Timely.sol": {
    "Timely": {
      "abi": [
        {
          "inputs": [
            {
              "internalType": "address",
              "name": "feeManager",
              "type": "address"
            },
            {
              "internalType": "address",
              "name": "timelyToken",
              "type": "address"
            }
          ],
          "stateMutability": "nonpayable",
          "type": "constructor"
        },
        {
          "inputs": [],
          "name": "AccessControlBadConfirmation",
          "type": "error"
        },
        {
          "inputs": [
            {
              "internalType": "address",
              "name": "account",
              "type": "address"
            },
            {
              "internalType": "bytes32",
              "name": "neededRole",
              "type": "bytes32"
            }
          ],
          "name": "AccessControlUnauthorizedAccount",
          "type": "error"
        },
        {
          "inputs": [
            {
              "internalType": "address",
              "name": "target",
              "type": "address"
            }
          ],
          "name": "AddressEmptyCode",
          "type": "error"
        },
        {
          "inputs": [
            {
              "internalType": "address",
              "name": "account",
              "type": "address"
            }
          ],
          "name": "AddressInsufficientBalance",
          "type": "error"
        },
        {
          "inputs": [],
          "name": "EnforcedPause",
          "type": "error"
        },
        {
          "inputs": [],
          "name": "ExpectedPause",
          "type": "error"
        },
        {
          "inputs": [],
          "name": "FailedInnerCall",
          "type": "error"
        },
        {
          "inputs": [],
          "name": "IdentifierAlreadyCancelled",
          "type": "error"
        },
        {
          "inputs": [
            {
              "internalType": "bytes32",
              "name": "identifier",
              "type": "bytes32"
            },
            {
              "internalType": "uint64",
              "name": "index",
              "type": "uint64"
            }
          ],
          "name": "IndexAlreadyExecuted",
          "type": "error"
        },
        {
          "inputs": [
            {
              "internalType": "uint256",
              "name": "amount",
              "type": "uint256"
            }
          ],
          "name": "InsufficientAmount",
          "type": "error"
        },
        {
          "inputs": [],
          "name": "InsufficientFee",
          "type": "error"
        },
        {
          "inputs": [
            {
              "internalType": "address",
              "name": "token",
              "type": "address"
            }
          ],
          "name": "SafeERC20FailedOperation",
          "type": "error"
        },
        {
          "inputs": [],
          "name": "UnAuthorize",
          "type": "error"
        },
        {
          "anonymous": false,
          "inputs": [
            {
              "indexed": false,
              "internalType": "bytes32",
              "name": "identifier",
              "type": "bytes32"
            }
          ],
          "name": "Cancelled",
          "type": "event"
        },
        {
          "anonymous": false,
          "inputs": [
            {
              "indexed": false,
              "internalType": "address",
              "name": "tokenId",
              "type": "address"
            },
            {
              "indexed": false,
              "internalType": "uint256",
              "name": "amount",
              "type": "uint256"
            }
          ],
          "name": "ClaimedTokens",
          "type": "event"
        },
        {
          "anonymous": false,
          "inputs": [
            {
              "indexed": false,
              "internalType": "address",
              "name": "sender",
              "type": "address"
            },
            {
              "indexed": false,
              "internalType": "uint256",
              "name": "amount",
              "type": "uint256"
            }
          ],
          "name": "Deposited",
          "type": "event"
        },
        {
          "anonymous": false,
          "inputs": [
            {
              "indexed": false,
              "internalType": "bytes32",
              "name": "identifier",
              "type": "bytes32"
            },
            {
              "indexed": false,
              "internalType": "uint64",
              "name": "index",
              "type": "uint64"
            }
          ],
          "name": "Executed",
          "type": "event"
        },
        {
          "anonymous": false,
          "inputs": [
            {
              "indexed": false,
              "internalType": "address",
              "name": "account",
              "type": "address"
            }
          ],
          "name": "Paused",
          "type": "event"
        },
        {
          "anonymous": false,
          "inputs": [
            {
              "indexed": true,
              "internalType": "uint64",
              "name": "nonce",
              "type": "uint64"
            },
            {
              "indexed": true,
              "internalType": "bytes32",
              "name": "identifier",
              "type": "bytes32"
            },
            {
              "indexed": false,
              "internalType": "address",
              "name": "sender",
              "type": "address"
            },
            {
              "indexed": false,
              "internalType": "uint64",
              "name": "delay",
              "type": "uint64"
            },
            {
              "indexed": false,
              "internalType": "enum Data.Schedule",
              "name": "iSchedule",
              "type": "uint8"
            },
            {
              "indexed": false,
              "internalType": "enum Data.Minutes",
              "name": "iMinutes",
              "type": "uint8"
            },
            {
              "indexed": false,
              "internalType": "enum Data.Hours",
              "name": "iHours",
              "type": "uint8"
            },
            {
              "indexed": false,
              "internalType": "enum Data.Middleware",
              "name": "middleware",
              "type": "uint8"
            }
          ],
          "name": "Published",
          "type": "event"
        },
        {
          "anonymous": false,
          "inputs": [
            {
              "indexed": true,
              "internalType": "bytes32",
              "name": "role",
              "type": "bytes32"
            },
            {
              "indexed": true,
              "internalType": "bytes32",
              "name": "previousAdminRole",
              "type": "bytes32"
            },
            {
              "indexed": true,
              "internalType": "bytes32",
              "name": "newAdminRole",
              "type": "bytes32"
            }
          ],
          "name": "RoleAdminChanged",
          "type": "event"
        },
        {
          "anonymous": false,
          "inputs": [
            {
              "indexed": true,
              "internalType": "bytes32",
              "name": "role",
              "type": "bytes32"
            },
            {
              "indexed": true,
              "internalType": "address",
              "name": "account",
              "type": "address"
            },
            {
              "indexed": true,
              "internalType": "address",
              "name": "sender",
              "type": "address"
            }
          ],
          "name": "RoleGranted",
          "type": "event"
        },
        {
          "anonymous": false,
          "inputs": [
            {
              "indexed": true,
              "internalType": "bytes32",
              "name": "role",
              "type": "bytes32"
            },
            {
              "indexed": true,
              "internalType": "address",
              "name": "account",
              "type": "address"
            },
            {
              "indexed": true,
              "internalType": "address",
              "name": "sender",
              "type": "address"
            }
          ],
          "name": "RoleRevoked",
          "type": "event"
        },
        {
          "anonymous": false,
          "inputs": [
            {
              "indexed": false,
              "internalType": "address",
              "name": "account",
              "type": "address"
            }
          ],
          "name": "Unpaused",
          "type": "event"
        },
        {
          "anonymous": false,
          "inputs": [
            {
              "indexed": false,
              "internalType": "address",
              "name": "sender",
              "type": "address"
            },
            {
              "indexed": false,
              "internalType": "uint256",
              "name": "amount",
              "type": "uint256"
            }
          ],
          "name": "Withdrawn",
          "type": "event"
        },
        {
          "inputs": [],
          "name": "DEFAULT_ADMIN_ROLE",
          "outputs": [
            {
              "internalType": "bytes32",
              "name": "",
              "type": "bytes32"
            }
          ],
          "stateMutability": "view",
          "type": "function"
        },
        {
          "inputs": [],
          "name": "EXECUTOR_ROLE",
          "outputs": [
            {
              "internalType": "bytes32",
              "name": "",
              "type": "bytes32"
            }
          ],
          "stateMutability": "view",
          "type": "function"
        },
        {
          "inputs": [],
          "name": "WITHDRAWER_ROLE",
          "outputs": [
            {
              "internalType": "bytes32",
              "name": "",
              "type": "bytes32"
            }
          ],
          "stateMutability": "view",
          "type": "function"
        },
        {
          "inputs": [
            {
              "internalType": "address",
              "name": "sender",
              "type": "address"
            }
          ],
          "name": "balanceOf",
          "outputs": [
            {
              "internalType": "uint256",
              "name": "",
              "type": "uint256"
            }
          ],
          "stateMutability": "view",
          "type": "function"
        },
        {
          "inputs": [
            {
              "internalType": "bytes32",
              "name": "identifier",
              "type": "bytes32"
            }
          ],
          "name": "cancel",
          "outputs": [],
          "stateMutability": "nonpayable",
          "type": "function"
        },
        {
          "inputs": [
            {
              "internalType": "address",
              "name": "tokenId",
              "type": "address"
            },
            {
              "internalType": "uint256",
              "name": "amount",
              "type": "uint256"
            }
          ],
          "name": "claimTokens",
          "outputs": [],
          "stateMutability": "nonpayable",
          "type": "function"
        },
        {
          "inputs": [
            {
              "internalType": "uint256",
              "name": "amount",
              "type": "uint256"
            }
          ],
          "name": "deposit",
          "outputs": [],
          "stateMutability": "nonpayable",
          "type": "function"
        },
        {
          "inputs": [
            {
              "internalType": "uint256",
              "name": "indexCount",
              "type": "uint256"
            }
          ],
          "name": "estimateFee",
          "outputs": [
            {
              "internalType": "uint256",
              "name": "",
              "type": "uint256"
            }
          ],
          "stateMutability": "view",
          "type": "function"
        },
        {
          "inputs": [
            {
              "internalType": "bytes32",
              "name": "role",
              "type": "bytes32"
            }
          ],
          "name": "getRoleAdmin",
          "outputs": [
            {
              "internalType": "bytes32",
              "name": "",
              "type": "bytes32"
            }
          ],
          "stateMutability": "view",
          "type": "function"
        },
        {
          "inputs": [],
          "name": "getTimelyToken",
          "outputs": [
            {
              "internalType": "address",
              "name": "",
              "type": "address"
            }
          ],
          "stateMutability": "view",
          "type": "function"
        },
        {
          "inputs": [
            {
              "internalType": "bytes32",
              "name": "role",
              "type": "bytes32"
            },
            {
              "internalType": "address",
              "name": "account",
              "type": "address"
            }
          ],
          "name": "grantRole",
          "outputs": [],
          "stateMutability": "nonpayable",
          "type": "function"
        },
        {
          "inputs": [
            {
              "internalType": "bytes32",
              "name": "role",
              "type": "bytes32"
            },
            {
              "internalType": "address",
              "name": "account",
              "type": "address"
            }
          ],
          "name": "hasRole",
          "outputs": [
            {
              "internalType": "bool",
              "name": "",
              "type": "bool"
            }
          ],
          "stateMutability": "view",
          "type": "function"
        },
        {
          "inputs": [
            {
              "internalType": "bytes32",
              "name": "identifier",
              "type": "bytes32"
            },
            {
              "internalType": "uint64",
              "name": "index",
              "type": "uint64"
            }
          ],
          "name": "isExecuted",
          "outputs": [
            {
              "internalType": "bool",
              "name": "",
              "type": "bool"
            }
          ],
          "stateMutability": "view",
          "type": "function"
        },
        {
          "inputs": [],
          "name": "pause",
          "outputs": [],
          "stateMutability": "nonpayable",
          "type": "function"
        },
        {
          "inputs": [],
          "name": "paused",
          "outputs": [
            {
              "internalType": "bool",
              "name": "",
              "type": "bool"
            }
          ],
          "stateMutability": "view",
          "type": "function"
        },
        {
          "inputs": [
            {
              "internalType": "address",
              "name": "receiver",
              "type": "address"
            },
            {
              "components": [
                {
                  "internalType": "bytes32",
                  "name": "identifier",
                  "type": "bytes32"
                },
                {
                  "internalType": "uint64",
                  "name": "index",
                  "type": "uint64"
                }
              ],
              "internalType": "struct Data.TimePayloadIn",
              "name": "timePayload",
              "type": "tuple"
            }
          ],
          "name": "postTimelyCallback",
          "outputs": [],
          "stateMutability": "nonpayable",
          "type": "function"
        },
        {
          "inputs": [
            {
              "components": [
                {
                  "internalType": "uint64",
                  "name": "delay",
                  "type": "uint64"
                },
                {
                  "internalType": "enum Data.Schedule",
                  "name": "iSchedule",
                  "type": "uint8"
                },
                {
                  "internalType": "enum Data.Minutes",
                  "name": "iMinutes",
                  "type": "uint8"
                },
                {
                  "internalType": "enum Data.Hours",
                  "name": "iHours",
                  "type": "uint8"
                },
                {
                  "internalType": "enum Data.Middleware",
                  "name": "middleware",
                  "type": "uint8"
                }
              ],
              "internalType": "struct Data.TimePayload",
              "name": "timePayload",
              "type": "tuple"
            }
          ],
          "name": "publish",
          "outputs": [
            {
              "internalType": "bytes32",
              "name": "",
              "type": "bytes32"
            }
          ],
          "stateMutability": "nonpayable",
          "type": "function"
        },
        {
          "inputs": [
            {
              "internalType": "address",
              "name": "receiver",
              "type": "address"
            },
            {
              "internalType": "bytes32",
              "name": "identifier",
              "type": "bytes32"
            }
          ],
          "name": "readTimelyMiddleware",
          "outputs": [
            {
              "internalType": "bool",
              "name": "",
              "type": "bool"
            }
          ],
          "stateMutability": "view",
          "type": "function"
        },
        {
          "inputs": [
            {
              "internalType": "bytes32",
              "name": "role",
              "type": "bytes32"
            },
            {
              "internalType": "address",
              "name": "callerConfirmation",
              "type": "address"
            }
          ],
          "name": "renounceRole",
          "outputs": [],
          "stateMutability": "nonpayable",
          "type": "function"
        },
        {
          "inputs": [
            {
              "internalType": "bytes32",
              "name": "role",
              "type": "bytes32"
            },
            {
              "internalType": "address",
              "name": "account",
              "type": "address"
            }
          ],
          "name": "revokeRole",
          "outputs": [],
          "stateMutability": "nonpayable",
          "type": "function"
        },
        {
          "inputs": [
            {
              "internalType": "bytes4",
              "name": "interfaceId",
              "type": "bytes4"
            }
          ],
          "name": "supportsInterface",
          "outputs": [
            {
              "internalType": "bool",
              "name": "",
              "type": "bool"
            }
          ],
          "stateMutability": "view",
          "type": "function"
        },
        {
          "inputs": [],
          "name": "unPause",
          "outputs": [],
          "stateMutability": "nonpayable",
          "type": "function"
        },
        {
          "inputs": [
            {
              "internalType": "uint256",
              "name": "amount",
              "type": "uint256"
            }
          ],
          "name": "withdraw",
          "outputs": [],
          "stateMutability": "nonpayable",
          "type": "function"
        }
      ],
      "evm": {
        "bytecode": {
          "linkReferences": {},
          "object": "608034620000c557601f6200175238819003918201601f19168301916001600160401b03831184841017620000ca578084926040948552833981010312620000c5576200005a60206200005283620000e0565b9201620000e0565b9060ff19600054166000556200007033620000f5565b506200007c3362000198565b50620000883362000236565b50600280546001600160a01b039384166001600160a01b0319918216179091556003805492909316911617905560405161147a9081620002b88239f35b600080fd5b634e487b7160e01b600052604160045260246000fd5b51906001600160a01b0382168203620000c557565b6001600160a01b031660008181527fc9ee83ecf8e561e5df8e9e3a8d108a689296832fb5d541ca3c450b10eaabf8e160205260408120549091907fd8aa0f3194971a2a116679f7c2090f6939c8d4e01a2a8d7e41d55e5351469e639060ff16620001935780835260016020526040832082845260205260408320600160ff1982541617905560008051602062001732833981519152339380a4600190565b505090565b6001600160a01b031660008181527f55183b8ac4a82f4a7e1e58b6f4191216f6e4ec65d5c848685f0148e75403eba060205260408120549091907f10dac8c06a04bec0b551627dad28bc00d6516b0caacd1c7b345fcdb5211334e49060ff16620001935780835260016020526040832082845260205260408320600160ff1982541617905560008051602062001732833981519152339380a4600190565b6001600160a01b031660008181527fa6eef7e35abe7026729641147f7915573c7e97b47efa546f5f6e3230263bcb49602052604081205490919060ff16620002b35781805260016020526040822081835260205260408220600160ff198254161790553391600080516020620017328339815191528180a4600190565b509056fe608060409080825260048036101561001657600080fd5b600091823560e01c90816301ffc9a714610f215750806302fd39dc14610ccc57806307bd026514610c9157806309749b6214610c46578063127e8e4d14610bb35780631790b6f0146108a3578063248a9ca3146108785780632e1a7d4d146107af5780632f2ff15d1461078657806336568abe146107275780635c975abb1461070557806370a08231146106ce5780638456cb591461063d57806385f438c1146106025780638bc048ac146105da57806391d1485414610592578063a217fddf14610577578063a5827b6a146104ca578063b6b55f25146103c5578063c4d252f514610322578063d547741f146102e4578063f7b188a5146102245763fe417fa51461012157600080fd5b34610220578260031936011261022057610139610fc0565b602435917f10dac8c06a04bec0b551627dad28bc00d6516b0caacd1c7b345fcdb5211334e4845260016020528484203360005260205260ff856000205416156101dd57506101d77fe9aa550fd75d0d28e07fa9dd67d3ae705678776f6c4a75abd09534f93e7d790793946101b784336001600160a01b03861661111f565b5192839283602090939291936001600160a01b0360408201951681520152565b0390a180f35b606490602086519162461bcd60e51b8352820152601a60248201527f43616c6c6572206973206e6f74206120776974686472617765720000000000006044820152fd5b5080fd5b508290346102e057826003193601126102e0577fd8aa0f3194971a2a116679f7c2090f6939c8d4e01a2a8d7e41d55e5351469e63835260016020528183203360005260205261027960ff836000205416611063565b82549060ff8216156102b9575060ff19168255513381527f5db9ee0a495bf2e6ff9c91a7834c1ba4fdd244a5e8aa4e537bd38aeae4b073aa90602090a180f35b82517f8dfc202b000000000000000000000000000000000000000000000000000000008152fd5b8280fd5b5082346102e057806003193601126102e05761031e91356103196001610308610fdb565b93838752816020528620015461117b565b611259565b5080f35b5082346102e05760203660031901126102e0578135916103406110e9565b8284526006602052336001600160a01b0383862054160361039e5750816020917fbaa1eb22f2a492ba1a5fea61b8df4d27c6c8b5f3971e63bb58fa14ff72eedb7093855260078352808520600160ff1982541617905551908152a180f35b90517f5a519520000000000000000000000000000000000000000000000000000000008152fd5b509134610220576020366003190112610220578235906103e36110e9565b6001600160a01b03600254168151907f23b872dd0000000000000000000000000000000000000000000000000000000060208301523360248301523060448301528360648301526064825260a0820182811067ffffffffffffffff8211176104b557835261045191906112d1565b33835260056020528083208054908382018092116104a257555133815260208101919091527f2da466a7b24304f47e87fa2e1e5a81b9831ce54fec19055ce277ca2f39ba42c49080604081016101d7565b602485601188634e487b7160e01b835252fd5b604187634e487b7160e01b6000525260246000fd5b5082346102e057806003193601126102e05760206001600160a01b039260246104f1610fc0565b91845195869384927f3076315a000000000000000000000000000000000000000000000000000000008452843590840152165afa91821561056d576020939261053e575b50519015158152f35b61055f919250833d8511610566575b6105578183610ff1565b8101906110d1565b9083610535565b503d61054d565b81513d85823e3d90fd5b82843461022057816003193601126102205751908152602090f35b508290346102e057816003193601126102e0576001600160a01b03826020946105b9610fdb565b9335815260018652209116600052825260ff81600020541690519015158152f35b8284346102205781600319360112610220576020906001600160a01b03600254169051908152f35b828434610220578160031936011261022057602090517f10dac8c06a04bec0b551627dad28bc00d6516b0caacd1c7b345fcdb5211334e48152f35b82843461022057816003193601126102205760207f62e78cea01bee320cd4e420270b5ea74000d11b0c9f74754ebdbfc544b05a258917fd8aa0f3194971a2a116679f7c2090f6939c8d4e01a2a8d7e41d55e5351469e638452600182528084203360005282526106b360ff826000205416611063565b6106bb6110e9565b835460ff1916600117845551338152a180f35b82843461022057602036600319011261022057806020926001600160a01b036106f5610fc0565b1681526005845220549051908152f35b82843461022057816003193601126102205760ff602092541690519015158152f35b509134610220578060031936011261022057610741610fdb565b90336001600160a01b0383160361075e575061031e919235611259565b8390517f6697b232000000000000000000000000000000000000000000000000000000008152fd5b5082346102e057806003193601126102e05761031e91356107aa6001610308610fdb565b6111d8565b5082346102e05760203660031901126102e0578135916107cd6110e9565b33845260056020528184205483811061084b57847f7084f5476618d8e60b11ef0d7d3f06914655adb8793e28ff7f018d4c76d505d56101d7868661081d82336001600160a01b036002541661111f565b33855260056020528085206108338382546110ae565b90555133815260208101919091529081906040820190565b60249251917f77b8dde3000000000000000000000000000000000000000000000000000000008352820152fd5b508290346102e05760203660031901126102e057816020936001923581528285522001549051908152f35b5082346102e05760603660031901126102e0576108be610fc0565b81602319360112610baf57815167ffffffffffffffff9080840182811182821017610b9c5784526024358152604435928284168403610b98576020908183019485527fd8aa0f3194971a2a116679f7c2090f6939c8d4e01a2a8d7e41d55e5351469e63885260018252858820338952825261093e60ff878a205416611063565b825188526007825260ff8689205416610b705782518852868252858820848651168952825260ff8689205416610b24576001600160a01b03809116908189526005835286892054906003541683600160248b8b51948593849263127e8e4d60e01b84528301525afa908115610b1a578a91610ae9575b50809110610ac157908891818352600584526109d48884209182546110ae565b9055803b1561022057819060448851809481937f308d6c9600000000000000000000000000000000000000000000000000000000835288518d840152898b511660248401525af18015610ab757610a93575b5081518752948552838620835183166000908152955293839020805460ff1916600117905592519051915190815267ffffffffffffffff919092161660208201527f35d18cd21af9042cd9cbf41cdb1ae42a964160fdb9890df6d10fd6c3cff433459080604081016101d7565b838111610aa45785526101d7610a26565b602488604189634e487b7160e01b835252fd5b86513d8a823e3d90fd5b8787517f025dbdd4000000000000000000000000000000000000000000000000000000008152fd5b90508381813d8311610b13575b610b008183610ff1565b81010312610b0f57518a6109b4565b8980fd5b503d610af6565b88513d8c823e3d90fd5b505051915192517fee9bb42200000000000000000000000000000000000000000000000000000000815293840191825290911667ffffffffffffffff1660208201528190036040019150fd5b8686517f0a9933e4000000000000000000000000000000000000000000000000000000008152fd5b8680fd5b602487604188634e487b7160e01b835252fd5b8380fd5b50913461022057602092836003193601126102e057836001600160a01b036003541691602484518094819363127e8e4d60e01b83528035908301525afa928315610c3b578093610c06575b505051908152f35b909192508382813d8311610c34575b610c1f8183610ff1565b81010312610c31575051903880610bfe565b80fd5b503d610c15565b8251903d90823e3d90fd5b508290346102e057816003193601126102e0576024359067ffffffffffffffff8216809203610baf5760209360ff928285933583528652828220908252855220541690519015158152f35b828434610220578160031936011261022057602090517fd8aa0f3194971a2a116679f7c2090f6939c8d4e01a2a8d7e41d55e5351469e638152f35b5082346102e05760a03660031901126102e057610ce76110e9565b67ffffffffffffffff92836008541693825160a0810181811083821117610f0e578452843592828416938481036102205782526024359160028310156102205782602082015260443594600f8610156102e05786820198868a52606435926019841015610f0a57606081019a848c52608435916002831015610b9857608083910152610d7287611029565b519a600f8c1015610ef757519a60198c1015610ef75789516020810193845233818c01527feeeeeeeeeeeeeeeeeeeeeeeeeeeeeeeeeeeeeeee00000000000000000000000060608201529a9b610de991610ddf9060a08e610dd28c611029565b8b60808201520190611049565b60c08c0190611056565b60c08a5260e08a01918a831088841117610ee457828a528a519020998a9485875260066020528a87203381547fffffffffffffffffffffffff00000000000000000000000000000000000000001617905560085499898b16988996338752610100850152610e5681611029565b6101208401526101408301610e6a91611049565b6101608201610e7891611056565b610e8182611029565b610180015260c07f52162eb9e96e101651e01ef0d83e67cb88409e86ad473743bacd1ff4f2ed680c91a3828214610ed1575060209550600101169067ffffffffffffffff19161760085551908152f35b80601188634e487b7160e01b6024945252fd5b60248660418e634e487b7160e01b835252fd5b60248660218d634e487b7160e01b835252fd5b8480fd5b602484604188634e487b7160e01b835252fd5b919050346102e05760203660031901126102e057357fffffffff0000000000000000000000000000000000000000000000000000000081168091036102e057602092507f7965db0b000000000000000000000000000000000000000000000000000000008114908115610f96575b5015158152f35b7f01ffc9a70000000000000000000000000000000000000000000000000000000091501483610f8f565b600435906001600160a01b0382168203610fd657565b600080fd5b602435906001600160a01b0382168203610fd657565b90601f8019910116810190811067ffffffffffffffff82111761101357604052565b634e487b7160e01b600052604160045260246000fd5b6002111561103357565b634e487b7160e01b600052602160045260246000fd5b90600f8210156110335752565b9060198210156110335752565b1561106a57565b606460405162461bcd60e51b815260206004820152601860248201527f43616c6c6572206973206e6f742061206578656375746f7200000000000000006044820152fd5b919082039182116110bb57565b634e487b7160e01b600052601160045260246000fd5b90816020910312610fd657518015158103610fd65790565b60ff600054166110f557565b60046040517fd93c0665000000000000000000000000000000000000000000000000000000008152fd5b6040517fa9059cbb0000000000000000000000000000000000000000000000000000000060208201526001600160a01b0392909216602483015260448083019390935291815261117991611174606483610ff1565b6112d1565b565b80600052600160205260406000203360005260205260ff60406000205416156111a15750565b604490604051907fe2517d3f0000000000000000000000000000000000000000000000000000000082523360048301526024820152fd5b9060009180835260016020526001600160a01b036040842092169182845260205260ff604084205416156000146112545780835260016020526040832082845260205260408320600160ff198254161790557f2f8788117e7eff1d82e926ec794901d17c78024a50270940304540a733656f0d339380a4600190565b505090565b9060009180835260016020526001600160a01b036040842092169182845260205260ff604084205416600014611254578083526001602052604083208284526020526040832060ff1981541690557ff6391f5c32d9c69d2a47ea670b442974b53935d1edc7fd64eb21e047a839171b339380a4600190565b6001600160a01b031690600080826020829451910182865af13d156113a4573d67ffffffffffffffff81116113905760405161132e93929161131d601f8201601f191660200183610ff1565b8152809260203d92013e5b836113b1565b8051908115159182611375575b50506113445750565b602490604051907f5274afe70000000000000000000000000000000000000000000000000000000082526004820152fd5b61138892506020809183010191016110d1565b15388061133b565b602483634e487b7160e01b81526041600452fd5b61132e9150606090611328565b906113f057508051156113c657805190602001fd5b60046040517f1425ea42000000000000000000000000000000000000000000000000000000008152fd5b8151158061143b575b611401575090565b6024906001600160a01b03604051917f9996b315000000000000000000000000000000000000000000000000000000008352166004820152fd5b50803b156113f956fea2646970667358221220a180a75939ba88fc4947dd894daebf7ecad435aced77e5d3b4253a0313c6d53364736f6c634300081800332f8788117e7eff1d82e926ec794901d17c78024a50270940304540a733656f0d",
          "opcodes": "PUSH1 0x80 CALLVALUE PUSH3 0xC5 JUMPI PUSH1 0x1F PUSH3 0x1752 CODESIZE DUP2 SWAP1 SUB SWAP2 DUP3 ADD PUSH1 0x1F NOT AND DUP4 ADD SWAP2 PUSH1 0x1 PUSH1 0x1 PUSH1 0x40 SHL SUB DUP4 GT DUP5 DUP5 LT OR PUSH3 0xCA JUMPI DUP1 DUP5 SWAP3 PUSH1 0x40 SWAP5 DUP6 MSTORE DUP4 CODECOPY DUP2 ADD SUB SLT PUSH3 0xC5 JUMPI PUSH3 0x5A PUSH1 0x20 PUSH3 0x52 DUP4 PUSH3 0xE0 JUMP JUMPDEST SWAP3 ADD PUSH3 0xE0 JUMP JUMPDEST SWAP1 PUSH1 0xFF NOT PUSH1 0x0 SLOAD AND PUSH1 0x0 SSTORE PUSH3 0x70 CALLER PUSH3 0xF5 JUMP JUMPDEST POP PUSH3 0x7C CALLER PUSH3 0x198 JUMP JUMPDEST POP PUSH3 0x88 CALLER PUSH3 0x236 JUMP JUMPDEST POP PUSH1 0x2 DUP1 SLOAD PUSH1 0x1 PUSH1 0x1 PUSH1 0xA0 SHL SUB SWAP4 DUP5 AND PUSH1 0x1 PUSH1 0x1 PUSH1 0xA0 SHL SUB NOT SWAP2 DUP3 AND OR SWAP1 SWAP2 SSTORE PUSH1 0x3 DUP1 SLOAD SWAP3 SWAP1 SWAP4 AND SWAP2 AND OR SWAP1 SSTORE PUSH1 0x40 MLOAD PUSH2 0x147A SWAP1 DUP2 PUSH3 0x2B8 DUP3 CODECOPY RETURN JUMPDEST PUSH1 0x0 DUP1 REVERT JUMPDEST PUSH4 0x4E487B71 PUSH1 0xE0 SHL PUSH1 0x0 MSTORE PUSH1 0x41 PUSH1 0x4 MSTORE PUSH1 0x24 PUSH1 0x0 REVERT JUMPDEST MLOAD SWAP1 PUSH1 0x1 PUSH1 0x1 PUSH1 0xA0 SHL SUB DUP3 AND DUP3 SUB PUSH3 0xC5 JUMPI JUMP JUMPDEST PUSH1 0x1 PUSH1 0x1 PUSH1 0xA0 SHL SUB AND PUSH1 0x0 DUP2 DUP2 MSTORE PUSH32 0xC9EE83ECF8E561E5DF8E9E3A8D108A689296832FB5D541CA3C450B10EAABF8E1 PUSH1 0x20 MSTORE PUSH1 0x40 DUP2 KECCAK256 SLOAD SWAP1 SWAP2 SWAP1 PUSH32 0xD8AA0F3194971A2A116679F7C2090F6939C8D4E01A2A8D7E41D55E5351469E63 SWAP1 PUSH1 0xFF AND PUSH3 0x193 JUMPI DUP1 DUP4 MSTORE PUSH1 0x1 PUSH1 0x20 MSTORE PUSH1 0x40 DUP4 KECCAK256 DUP3 DUP5 MSTORE PUSH1 0x20 MSTORE PUSH1 0x40 DUP4 KECCAK256 PUSH1 0x1 PUSH1 0xFF NOT DUP3 SLOAD AND OR SWAP1 SSTORE PUSH1 0x0 DUP1 MLOAD PUSH1 0x20 PUSH3 0x1732 DUP4 CODECOPY DUP2 MLOAD SWAP2 MSTORE CALLER SWAP4 DUP1 LOG4 PUSH1 0x1 SWAP1 JUMP JUMPDEST POP POP SWAP1 JUMP JUMPDEST PUSH1 0x1 PUSH1 0x1 PUSH1 0xA0 SHL SUB AND PUSH1 0x0 DUP2 DUP2 MSTORE PUSH32 0x55183B8AC4A82F4A7E1E58B6F4191216F6E4EC65D5C848685F0148E75403EBA0 PUSH1 0x20 MSTORE PUSH1 0x40 DUP2 KECCAK256 SLOAD SWAP1 SWAP2 SWAP1 PUSH32 0x10DAC8C06A04BEC0B551627DAD28BC00D6516B0CAACD1C7B345FCDB5211334E4 SWAP1 PUSH1 0xFF AND PUSH3 0x193 JUMPI DUP1 DUP4 MSTORE PUSH1 0x1 PUSH1 0x20 MSTORE PUSH1 0x40 DUP4 KECCAK256 DUP3 DUP5 MSTORE PUSH1 0x20 MSTORE PUSH1 0x40 DUP4 KECCAK256 PUSH1 0x1 PUSH1 0xFF NOT DUP3 SLOAD AND OR SWAP1 SSTORE PUSH1 0x0 DUP1 MLOAD PUSH1 0x20 PUSH3 0x1732 DUP4 CODECOPY DUP2 MLOAD SWAP2 MSTORE CALLER SWAP4 DUP1 LOG4 PUSH1 0x1 SWAP1 JUMP JUMPDEST PUSH1 0x1 PUSH1 0x1 PUSH1 0xA0 SHL SUB AND PUSH1 0x0 DUP2 DUP2 MSTORE PUSH32 0xA6EEF7E35ABE7026729641147F7915573C7E97B47EFA546F5F6E3230263BCB49 PUSH1 0x20 MSTORE PUSH1 0x40 DUP2 KECCAK256 SLOAD SWAP1 SWAP2 SWAP1 PUSH1 0xFF AND PUSH3 0x2B3 JUMPI DUP2 DUP1 MSTORE PUSH1 0x1 PUSH1 0x20 MSTORE PUSH1 0x40 DUP3 KECCAK256 DUP2 DUP4 MSTORE PUSH1 0x20 MSTORE PUSH1 0x40 DUP3 KECCAK256 PUSH1 0x1 PUSH1 0xFF NOT DUP3 SLOAD AND OR SWAP1 SSTORE CALLER SWAP2 PUSH1 0x0 DUP1 MLOAD PUSH1 0x20 PUSH3 0x1732 DUP4 CODECOPY DUP2 MLOAD SWAP2 MSTORE DUP2 DUP1 LOG4 PUSH1 0x1 SWAP1 JUMP JUMPDEST POP SWAP1 JUMP INVALID PUSH1 0x80 PUSH1 0x40 SWAP1 DUP1 DUP3 MSTORE PUSH1 0x4 DUP1 CALLDATASIZE LT ISZERO PUSH2 0x16 JUMPI PUSH1 0x0 DUP1 REVERT JUMPDEST PUSH1 0x0 SWAP2 DUP3 CALLDATALOAD PUSH1 0xE0 SHR SWAP1 DUP2 PUSH4 0x1FFC9A7 EQ PUSH2 0xF21 JUMPI POP DUP1 PUSH4 0x2FD39DC EQ PUSH2 0xCCC JUMPI DUP1 PUSH4 0x7BD0265 EQ PUSH2 0xC91 JUMPI DUP1 PUSH4 0x9749B62 EQ PUSH2 0xC46 JUMPI DUP1 PUSH4 0x127E8E4D EQ PUSH2 0xBB3 JUMPI DUP1 PUSH4 0x1790B6F0 EQ PUSH2 0x8A3 JUMPI DUP1 PUSH4 0x248A9CA3 EQ PUSH2 0x878 JUMPI DUP1 PUSH4 0x2E1A7D4D EQ PUSH2 0x7AF JUMPI DUP1 PUSH4 0x2F2FF15D EQ PUSH2 0x786 JUMPI DUP1 PUSH4 0x36568ABE EQ PUSH2 0x727 JUMPI DUP1 PUSH4 0x5C975ABB EQ PUSH2 0x705 JUMPI DUP1 PUSH4 0x70A08231 EQ PUSH2 0x6CE JUMPI DUP1 PUSH4 0x8456CB59 EQ PUSH2 0x63D JUMPI DUP1 PUSH4 0x85F438C1 EQ PUSH2 0x602 JUMPI DUP1 PUSH4 0x8BC048AC EQ PUSH2 0x5DA JUMPI DUP1 PUSH4 0x91D14854 EQ PUSH2 0x592 JUMPI DUP1 PUSH4 0xA217FDDF EQ PUSH2 0x577 JUMPI DUP1 PUSH4 0xA5827B6A EQ PUSH2 0x4CA JUMPI DUP1 PUSH4 0xB6B55F25 EQ PUSH2 0x3C5 JUMPI DUP1 PUSH4 0xC4D252F5 EQ PUSH2 0x322 JUMPI DUP1 PUSH4 0xD547741F EQ PUSH2 0x2E4 JUMPI DUP1 PUSH4 0xF7B188A5 EQ PUSH2 0x224 JUMPI PUSH4 0xFE417FA5 EQ PUSH2 0x121 JUMPI PUSH1 0x0 DUP1 REVERT JUMPDEST CALLVALUE PUSH2 0x220 JUMPI DUP3 PUSH1 0x3 NOT CALLDATASIZE ADD SLT PUSH2 0x220 JUMPI PUSH2 0x139 PUSH2 0xFC0 JUMP JUMPDEST PUSH1 0x24 CALLDATALOAD SWAP2 PUSH32 0x10DAC8C06A04BEC0B551627DAD28BC00D6516B0CAACD1C7B345FCDB5211334E4 DUP5 MSTORE PUSH1 0x1 PUSH1 0x20 MSTORE DUP5 DUP5 KECCAK256 CALLER PUSH1 0x0 MSTORE PUSH1 0x20 MSTORE PUSH1 0xFF DUP6 PUSH1 0x0 KECCAK256 SLOAD AND ISZERO PUSH2 0x1DD JUMPI POP PUSH2 0x1D7 PUSH32 0xE9AA550FD75D0D28E07FA9DD67D3AE705678776F6C4A75ABD09534F93E7D7907 SWAP4 SWAP5 PUSH2 0x1B7 DUP5 CALLER PUSH1 0x1 PUSH1 0x1 PUSH1 0xA0 SHL SUB DUP7 AND PUSH2 0x111F JUMP JUMPDEST MLOAD SWAP3 DUP4 SWAP3 DUP4 PUSH1 0x20 SWAP1 SWAP4 SWAP3 SWAP2 SWAP4 PUSH1 0x1 PUSH1 0x1 PUSH1 0xA0 SHL SUB PUSH1 0x40 DUP3 ADD SWAP6 AND DUP2 MSTORE ADD MSTORE JUMP JUMPDEST SUB SWAP1 LOG1 DUP1 RETURN JUMPDEST PUSH1 0x64 SWAP1 PUSH1 0x20 DUP7 MLOAD SWAP2 PUSH3 0x461BCD PUSH1 0xE5 SHL DUP4 MSTORE DUP3 ADD MSTORE PUSH1 0x1A PUSH1 0x24 DUP3 ADD MSTORE PUSH32 0x43616C6C6572206973206E6F7420612077697468647261776572000000000000 PUSH1 0x44 DUP3 ADD MSTORE REVERT JUMPDEST POP DUP1 REVERT JUMPDEST POP DUP3 SWAP1 CALLVALUE PUSH2 0x2E0 JUMPI DUP3 PUSH1 0x3 NOT CALLDATASIZE ADD SLT PUSH2 0x2E0 JUMPI PUSH32 0xD8AA0F3194971A2A116679F7C2090F6939C8D4E01A2A8D7E41D55E5351469E63 DUP4 MSTORE PUSH1 0x1 PUSH1 0x20 MSTORE DUP2 DUP4 KECCAK256 CALLER PUSH1 0x0 MSTORE PUSH1 0x20 MSTORE PUSH2 0x279 PUSH1 0xFF DUP4 PUSH1 0x0 KECCAK256 SLOAD AND PUSH2 0x1063 JUMP JUMPDEST DUP3 SLOAD SWAP1 PUSH1 0xFF DUP3 AND ISZERO PUSH2 0x2B9 JUMPI POP PUSH1 0xFF NOT AND DUP3 SSTORE MLOAD CALLER DUP2 MSTORE PUSH32 0x5DB9EE0A495BF2E6FF9C91A7834C1BA4FDD244A5E8AA4E537BD38AEAE4B073AA SWAP1 PUSH1 0x20 SWAP1 LOG1 DUP1 RETURN JUMPDEST DUP3 MLOAD PUSH32 0x8DFC202B00000000000000000000000000000000000000000000000000000000 DUP2 MSTORE REVERT JUMPDEST DUP3 DUP1 REVERT JUMPDEST POP DUP3 CALLVALUE PUSH2 0x2E0 JUMPI DUP1 PUSH1 0x3 NOT CALLDATASIZE ADD SLT PUSH2 0x2E0 JUMPI PUSH2 0x31E SWAP2 CALLDATALOAD PUSH2 0x319 PUSH1 0x1 PUSH2 0x308 PUSH2 0xFDB JUMP JUMPDEST SWAP4 DUP4 DUP8 MSTORE DUP2 PUSH1 0x20 MSTORE DUP7 KECCAK256 ADD SLOAD PUSH2 0x117B JUMP JUMPDEST PUSH2 0x1259 JUMP JUMPDEST POP DUP1 RETURN JUMPDEST POP DUP3 CALLVALUE PUSH2 0x2E0 JUMPI PUSH1 0x20 CALLDATASIZE PUSH1 0x3 NOT ADD SLT PUSH2 0x2E0 JUMPI DUP2 CALLDATALOAD SWAP2 PUSH2 0x340 PUSH2 0x10E9 JUMP JUMPDEST DUP3 DUP5 MSTORE PUSH1 0x6 PUSH1 0x20 MSTORE CALLER PUSH1 0x1 PUSH1 0x1 PUSH1 0xA0 SHL SUB DUP4 DUP7 KECCAK256 SLOAD AND SUB PUSH2 0x39E JUMPI POP DUP2 PUSH1 0x20 SWAP2 PUSH32 0xBAA1EB22F2A492BA1A5FEA61B8DF4D27C6C8B5F3971E63BB58FA14FF72EEDB70 SWAP4 DUP6 MSTORE PUSH1 0x7 DUP4 MSTORE DUP1 DUP6 KECCAK256 PUSH1 0x1 PUSH1 0xFF NOT DUP3 SLOAD AND OR SWAP1 SSTORE MLOAD SWAP1 DUP2 MSTORE LOG1 DUP1 RETURN JUMPDEST SWAP1 MLOAD PUSH32 0x5A51952000000000000000000000000000000000000000000000000000000000 DUP2 MSTORE REVERT JUMPDEST POP SWAP2 CALLVALUE PUSH2 0x220 JUMPI PUSH1 0x20 CALLDATASIZE PUSH1 0x3 NOT ADD SLT PUSH2 0x220 JUMPI DUP3 CALLDATALOAD SWAP1 PUSH2 0x3E3 PUSH2 0x10E9 JUMP JUMPDEST PUSH1 0x1 PUSH1 0x1 PUSH1 0xA0 SHL SUB PUSH1 0x2 SLOAD AND DUP2 MLOAD SWAP1 PUSH32 0x23B872DD00000000000000000000000000000000000000000000000000000000 PUSH1 0x20 DUP4 ADD MSTORE CALLER PUSH1 0x24 DUP4 ADD MSTORE ADDRESS PUSH1 0x44 DUP4 ADD MSTORE DUP4 PUSH1 0x64 DUP4 ADD MSTORE PUSH1 0x64 DUP3 MSTORE PUSH1 0xA0 DUP3 ADD DUP3 DUP2 LT PUSH8 0xFFFFFFFFFFFFFFFF DUP3 GT OR PUSH2 0x4B5 JUMPI DUP4 MSTORE PUSH2 0x451 SWAP2 SWAP1 PUSH2 0x12D1 JUMP JUMPDEST CALLER DUP4 MSTORE PUSH1 0x5 PUSH1 0x20 MSTORE DUP1 DUP4 KECCAK256 DUP1 SLOAD SWAP1 DUP4 DUP3 ADD DUP1 SWAP3 GT PUSH2 0x4A2 JUMPI SSTORE MLOAD CALLER DUP2 MSTORE PUSH1 0x20 DUP2 ADD SWAP2 SWAP1 SWAP2 MSTORE PUSH32 0x2DA466A7B24304F47E87FA2E1E5A81B9831CE54FEC19055CE277CA2F39BA42C4 SWAP1 DUP1 PUSH1 0x40 DUP2 ADD PUSH2 0x1D7 JUMP JUMPDEST PUSH1 0x24 DUP6 PUSH1 0x11 DUP9 PUSH4 0x4E487B71 PUSH1 0xE0 SHL DUP4 MSTORE MSTORE REVERT JUMPDEST PUSH1 0x41 DUP8 PUSH4 0x4E487B71 PUSH1 0xE0 SHL PUSH1 0x0 MSTORE MSTORE PUSH1 0x24 PUSH1 0x0 REVERT JUMPDEST POP DUP3 CALLVALUE PUSH2 0x2E0 JUMPI DUP1 PUSH1 0x3 NOT CALLDATASIZE ADD SLT PUSH2 0x2E0 JUMPI PUSH1 0x20 PUSH1 0x1 PUSH1 0x1 PUSH1 0xA0 SHL SUB SWAP3 PUSH1 0x24 PUSH2 0x4F1 PUSH2 0xFC0 JUMP JUMPDEST SWAP2 DUP5 MLOAD SWAP6 DUP7 SWAP4 DUP5 SWAP3 PUSH32 0x3076315A00000000000000000000000000000000000000000000000000000000 DUP5 MSTORE DUP5 CALLDATALOAD SWAP1 DUP5 ADD MSTORE AND GAS STATICCALL SWAP2 DUP3 ISZERO PUSH2 0x56D JUMPI PUSH1 0x20 SWAP4 SWAP3 PUSH2 0x53E JUMPI JUMPDEST POP MLOAD SWAP1 ISZERO ISZERO DUP2 MSTORE RETURN JUMPDEST PUSH2 0x55F SWAP2 SWAP3 POP DUP4 RETURNDATASIZE DUP6 GT PUSH2 0x566 JUMPI JUMPDEST PUSH2 0x557 DUP2 DUP4 PUSH2 0xFF1 JUMP JUMPDEST DUP2 ADD SWAP1 PUSH2 0x10D1 JUMP JUMPDEST SWAP1 DUP4 PUSH2 0x535 JUMP JUMPDEST POP RETURNDATASIZE PUSH2 0x54D JUMP JUMPDEST DUP2 MLOAD RETURNDATASIZE DUP6 DUP3 RETURNDATACOPY RETURNDATASIZE SWAP1 REVERT JUMPDEST DUP3 DUP5 CALLVALUE PUSH2 0x220 JUMPI DUP2 PUSH1 0x3 NOT CALLDATASIZE ADD SLT PUSH2 0x220 JUMPI MLOAD SWAP1 DUP2 MSTORE PUSH1 0x20 SWAP1 RETURN JUMPDEST POP DUP3 SWAP1 CALLVALUE PUSH2 0x2E0 JUMPI DUP2 PUSH1 0x3 NOT CALLDATASIZE ADD SLT PUSH2 0x2E0 JUMPI PUSH1 0x1 PUSH1 0x1 PUSH1 0xA0 SHL SUB DUP3 PUSH1 0x20 SWAP5 PUSH2 0x5B9 PUSH2 0xFDB JUMP JUMPDEST SWAP4 CALLDATALOAD DUP2 MSTORE PUSH1 0x1 DUP7 MSTORE KECCAK256 SWAP2 AND PUSH1 0x0 MSTORE DUP3 MSTORE PUSH1 0xFF DUP2 PUSH1 0x0 KECCAK256 SLOAD AND SWAP1 MLOAD SWAP1 ISZERO ISZERO DUP2 MSTORE RETURN JUMPDEST DUP3 DUP5 CALLVALUE PUSH2 0x220 JUMPI DUP2 PUSH1 0x3 NOT CALLDATASIZE ADD SLT PUSH2 0x220 JUMPI PUSH1 0x20 SWAP1 PUSH1 0x1 PUSH1 0x1 PUSH1 0xA0 SHL SUB PUSH1 0x2 SLOAD AND SWAP1 MLOAD SWAP1 DUP2 MSTORE RETURN JUMPDEST DUP3 DUP5 CALLVALUE PUSH2 0x220 JUMPI DUP2 PUSH1 0x3 NOT CALLDATASIZE ADD SLT PUSH2 0x220 JUMPI PUSH1 0x20 SWAP1 MLOAD PUSH32 0x10DAC8C06A04BEC0B551627DAD28BC00D6516B0CAACD1C7B345FCDB5211334E4 DUP2 MSTORE RETURN JUMPDEST DUP3 DUP5 CALLVALUE PUSH2 0x220 JUMPI DUP2 PUSH1 0x3 NOT CALLDATASIZE ADD SLT PUSH2 0x220 JUMPI PUSH1 0x20 PUSH32 0x62E78CEA01BEE320CD4E420270B5EA74000D11B0C9F74754EBDBFC544B05A258 SWAP2 PUSH32 0xD8AA0F3194971A2A116679F7C2090F6939C8D4E01A2A8D7E41D55E5351469E63 DUP5 MSTORE PUSH1 0x1 DUP3 MSTORE DUP1 DUP5 KECCAK256 CALLER PUSH1 0x0 MSTORE DUP3 MSTORE PUSH2 0x6B3 PUSH1 0xFF DUP3 PUSH1 0x0 KECCAK256 SLOAD AND PUSH2 0x1063 JUMP JUMPDEST PUSH2 0x6BB PUSH2 0x10E9 JUMP JUMPDEST DUP4 SLOAD PUSH1 0xFF NOT AND PUSH1 0x1 OR DUP5 SSTORE MLOAD CALLER DUP2 MSTORE LOG1 DUP1 RETURN JUMPDEST DUP3 DUP5 CALLVALUE PUSH2 0x220 JUMPI PUSH1 0x20 CALLDATASIZE PUSH1 0x3 NOT ADD SLT PUSH2 0x220 JUMPI DUP1 PUSH1 0x20 SWAP3 PUSH1 0x1 PUSH1 0x1 PUSH1 0xA0 SHL SUB PUSH2 0x6F5 PUSH2 0xFC0 JUMP JUMPDEST AND DUP2 MSTORE PUSH1 0x5 DUP5 MSTORE KECCAK256 SLOAD SWAP1 MLOAD SWAP1 DUP2 MSTORE RETURN JUMPDEST DUP3 DUP5 CALLVALUE PUSH2 0x220 JUMPI DUP2 PUSH1 0x3 NOT CALLDATASIZE ADD SLT PUSH2 0x220 JUMPI PUSH1 0xFF PUSH1 0x20 SWAP3 SLOAD AND SWAP1 MLOAD SWAP1 ISZERO ISZERO DUP2 MSTORE RETURN JUMPDEST POP SWAP2 CALLVALUE PUSH2 0x220 JUMPI DUP1 PUSH1 0x3 NOT CALLDATASIZE ADD SLT PUSH2 0x220 JUMPI PUSH2 0x741 PUSH2 0xFDB JUMP JUMPDEST SWAP1 CALLER PUSH1 0x1 PUSH1 0x1 PUSH1 0xA0 SHL SUB DUP4 AND SUB PUSH2 0x75E JUMPI POP PUSH2 0x31E SWAP2 SWAP3 CALLDATALOAD PUSH2 0x1259 JUMP JUMPDEST DUP4 SWAP1 MLOAD PUSH32 0x6697B23200000000000000000000000000000000000000000000000000000000 DUP2 MSTORE REVERT JUMPDEST POP DUP3 CALLVALUE PUSH2 0x2E0 JUMPI DUP1 PUSH1 0x3 NOT CALLDATASIZE ADD SLT PUSH2 0x2E0 JUMPI PUSH2 0x31E SWAP2 CALLDATALOAD PUSH2 0x7AA PUSH1 0x1 PUSH2 0x308 PUSH2 0xFDB JUMP JUMPDEST PUSH2 0x11D8 JUMP JUMPDEST POP DUP3 CALLVALUE PUSH2 0x2E0 JUMPI PUSH1 0x20 CALLDATASIZE PUSH1 0x3 NOT ADD SLT PUSH2 0x2E0 JUMPI DUP2 CALLDATALOAD SWAP2 PUSH2 0x7CD PUSH2 0x10E9 JUMP JUMPDEST CALLER DUP5 MSTORE PUSH1 0x5 PUSH1 0x20 MSTORE DUP2 DUP5 KECCAK256 SLOAD DUP4 DUP2 LT PUSH2 0x84B JUMPI DUP5 PUSH32 0x7084F5476618D8E60B11EF0D7D3F06914655ADB8793E28FF7F018D4C76D505D5 PUSH2 0x1D7 DUP7 DUP7 PUSH2 0x81D DUP3 CALLER PUSH1 0x1 PUSH1 0x1 PUSH1 0xA0 SHL SUB PUSH1 0x2 SLOAD AND PUSH2 0x111F JUMP JUMPDEST CALLER DUP6 MSTORE PUSH1 0x5 PUSH1 0x20 MSTORE DUP1 DUP6 KECCAK256 PUSH2 0x833 DUP4 DUP3 SLOAD PUSH2 0x10AE JUMP JUMPDEST SWAP1 SSTORE MLOAD CALLER DUP2 MSTORE PUSH1 0x20 DUP2 ADD SWAP2 SWAP1 SWAP2 MSTORE SWAP1 DUP2 SWAP1 PUSH1 0x40 DUP3 ADD SWAP1 JUMP JUMPDEST PUSH1 0x24 SWAP3 MLOAD SWAP2 PUSH32 0x77B8DDE300000000000000000000000000000000000000000000000000000000 DUP4 MSTORE DUP3 ADD MSTORE REVERT JUMPDEST POP DUP3 SWAP1 CALLVALUE PUSH2 0x2E0 JUMPI PUSH1 0x20 CALLDATASIZE PUSH1 0x3 NOT ADD SLT PUSH2 0x2E0 JUMPI DUP2 PUSH1 0x20 SWAP4 PUSH1 0x1 SWAP3 CALLDATALOAD DUP2 MSTORE DUP3 DUP6 MSTORE KECCAK256 ADD SLOAD SWAP1 MLOAD SWAP1 DUP2 MSTORE RETURN JUMPDEST POP DUP3 CALLVALUE PUSH2 0x2E0 JUMPI PUSH1 0x60 CALLDATASIZE PUSH1 0x3 NOT ADD SLT PUSH2 0x2E0 JUMPI PUSH2 0x8BE PUSH2 0xFC0 JUMP JUMPDEST DUP2 PUSH1 0x23 NOT CALLDATASIZE ADD SLT PUSH2 0xBAF JUMPI DUP2 MLOAD PUSH8 0xFFFFFFFFFFFFFFFF SWAP1 DUP1 DUP5 ADD DUP3 DUP2 GT DUP3 DUP3 LT OR PUSH2 0xB9C JUMPI DUP5 MSTORE PUSH1 0x24 CALLDATALOAD DUP2 MSTORE PUSH1 0x44 CALLDATALOAD SWAP3 DUP3 DUP5 AND DUP5 SUB PUSH2 0xB98 JUMPI PUSH1 0x20 SWAP1 DUP2 DUP4 ADD SWAP5 DUP6 MSTORE PUSH32 0xD8AA0F3194971A2A116679F7C2090F6939C8D4E01A2A8D7E41D55E5351469E63 DUP9 MSTORE PUSH1 0x1 DUP3 MSTORE DUP6 DUP9 KECCAK256 CALLER DUP10 MSTORE DUP3 MSTORE PUSH2 0x93E PUSH1 0xFF DUP8 DUP11 KECCAK256 SLOAD AND PUSH2 0x1063 JUMP JUMPDEST DUP3 MLOAD DUP9 MSTORE PUSH1 0x7 DUP3 MSTORE PUSH1 0xFF DUP7 DUP10 KECCAK256 SLOAD AND PUSH2 0xB70 JUMPI DUP3 MLOAD DUP9 MSTORE DUP7 DUP3 MSTORE DUP6 DUP9 KECCAK256 DUP5 DUP7 MLOAD AND DUP10 MSTORE DUP3 MSTORE PUSH1 0xFF DUP7 DUP10 KECCAK256 SLOAD AND PUSH2 0xB24 JUMPI PUSH1 0x1 PUSH1 0x1 PUSH1 0xA0 SHL SUB DUP1 SWAP2 AND SWAP1 DUP2 DUP10 MSTORE PUSH1 0x5 DUP4 MSTORE DUP7 DUP10 KECCAK256 SLOAD SWAP1 PUSH1 0x3 SLOAD AND DUP4 PUSH1 0x1 PUSH1 0x24 DUP12 DUP12 MLOAD SWAP5 DUP6 SWAP4 DUP5 SWAP3 PUSH4 0x127E8E4D PUSH1 0xE0 SHL DUP5 MSTORE DUP4 ADD MSTORE GAS STATICCALL SWAP1 DUP2 ISZERO PUSH2 0xB1A JUMPI DUP11 SWAP2 PUSH2 0xAE9 JUMPI JUMPDEST POP DUP1 SWAP2 LT PUSH2 0xAC1 JUMPI SWAP1 DUP9 SWAP2 DUP2 DUP4 MSTORE PUSH1 0x5 DUP5 MSTORE PUSH2 0x9D4 DUP9 DUP5 KECCAK256 SWAP2 DUP3 SLOAD PUSH2 0x10AE JUMP JUMPDEST SWAP1 SSTORE DUP1 EXTCODESIZE ISZERO PUSH2 0x220 JUMPI DUP2 SWAP1 PUSH1 0x44 DUP9 MLOAD DUP1 SWAP5 DUP2 SWAP4 PUSH32 0x308D6C9600000000000000000000000000000000000000000000000000000000 DUP4 MSTORE DUP9 MLOAD DUP14 DUP5 ADD MSTORE DUP10 DUP12 MLOAD AND PUSH1 0x24 DUP5 ADD MSTORE GAS CALL DUP1 ISZERO PUSH2 0xAB7 JUMPI PUSH2 0xA93 JUMPI JUMPDEST POP DUP2 MLOAD DUP8 MSTORE SWAP5 DUP6 MSTORE DUP4 DUP7 KECCAK256 DUP4 MLOAD DUP4 AND PUSH1 0x0 SWAP1 DUP2 MSTORE SWAP6 MSTORE SWAP4 DUP4 SWAP1 KECCAK256 DUP1 SLOAD PUSH1 0xFF NOT AND PUSH1 0x1 OR SWAP1 SSTORE SWAP3 MLOAD SWAP1 MLOAD SWAP2 MLOAD SWAP1 DUP2 MSTORE PUSH8 0xFFFFFFFFFFFFFFFF SWAP2 SWAP1 SWAP3 AND AND PUSH1 0x20 DUP3 ADD MSTORE PUSH32 0x35D18CD21AF9042CD9CBF41CDB1AE42A964160FDB9890DF6D10FD6C3CFF43345 SWAP1 DUP1 PUSH1 0x40 DUP2 ADD PUSH2 0x1D7 JUMP JUMPDEST DUP4 DUP2 GT PUSH2 0xAA4 JUMPI DUP6 MSTORE PUSH2 0x1D7 PUSH2 0xA26 JUMP JUMPDEST PUSH1 0x24 DUP9 PUSH1 0x41 DUP10 PUSH4 0x4E487B71 PUSH1 0xE0 SHL DUP4 MSTORE MSTORE REVERT JUMPDEST DUP7 MLOAD RETURNDATASIZE DUP11 DUP3 RETURNDATACOPY RETURNDATASIZE SWAP1 REVERT JUMPDEST DUP8 DUP8 MLOAD PUSH32 0x25DBDD400000000000000000000000000000000000000000000000000000000 DUP2 MSTORE REVERT JUMPDEST SWAP1 POP DUP4 DUP2 DUP2 RETURNDATASIZE DUP4 GT PUSH2 0xB13 JUMPI JUMPDEST PUSH2 0xB00 DUP2 DUP4 PUSH2 0xFF1 JUMP JUMPDEST DUP2 ADD SUB SLT PUSH2 0xB0F JUMPI MLOAD DUP11 PUSH2 0x9B4 JUMP JUMPDEST DUP10 DUP1 REVERT JUMPDEST POP RETURNDATASIZE PUSH2 0xAF6 JUMP JUMPDEST DUP9 MLOAD RETURNDATASIZE DUP13 DUP3 RETURNDATACOPY RETURNDATASIZE SWAP1 REVERT JUMPDEST POP POP MLOAD SWAP2 MLOAD SWAP3 MLOAD PUSH32 0xEE9BB42200000000000000000000000000000000000000000000000000000000 DUP2 MSTORE SWAP4 DUP5 ADD SWAP2 DUP3 MSTORE SWAP1 SWAP2 AND PUSH8 0xFFFFFFFFFFFFFFFF AND PUSH1 0x20 DUP3 ADD MSTORE DUP2 SWAP1 SUB PUSH1 0x40 ADD SWAP2 POP REVERT JUMPDEST DUP7 DUP7 MLOAD PUSH32 0xA9933E400000000000000000000000000000000000000000000000000000000 DUP2 MSTORE REVERT JUMPDEST DUP7 DUP1 REVERT JUMPDEST PUSH1 0x24 DUP8 PUSH1 0x41 DUP9 PUSH4 0x4E487B71 PUSH1 0xE0 SHL DUP4 MSTORE MSTORE REVERT JUMPDEST DUP4 DUP1 REVERT JUMPDEST POP SWAP2 CALLVALUE PUSH2 0x220 JUMPI PUSH1 0x20 SWAP3 DUP4 PUSH1 0x3 NOT CALLDATASIZE ADD SLT PUSH2 0x2E0 JUMPI DUP4 PUSH1 0x1 PUSH1 0x1 PUSH1 0xA0 SHL SUB PUSH1 0x3 SLOAD AND SWAP2 PUSH1 0x24 DUP5 MLOAD DUP1 SWAP5 DUP2 SWAP4 PUSH4 0x127E8E4D PUSH1 0xE0 SHL DUP4 MSTORE DUP1 CALLDATALOAD SWAP1 DUP4 ADD MSTORE GAS STATICCALL SWAP3 DUP4 ISZERO PUSH2 0xC3B JUMPI DUP1 SWAP4 PUSH2 0xC06 JUMPI JUMPDEST POP POP MLOAD SWAP1 DUP2 MSTORE RETURN JUMPDEST SWAP1 SWAP2 SWAP3 POP DUP4 DUP3 DUP2 RETURNDATASIZE DUP4 GT PUSH2 0xC34 JUMPI JUMPDEST PUSH2 0xC1F DUP2 DUP4 PUSH2 0xFF1 JUMP JUMPDEST DUP2 ADD SUB SLT PUSH2 0xC31 JUMPI POP MLOAD SWAP1 CODESIZE DUP1 PUSH2 0xBFE JUMP JUMPDEST DUP1 REVERT JUMPDEST POP RETURNDATASIZE PUSH2 0xC15 JUMP JUMPDEST DUP3 MLOAD SWAP1 RETURNDATASIZE SWAP1 DUP3 RETURNDATACOPY RETURNDATASIZE SWAP1 REVERT JUMPDEST POP DUP3 SWAP1 CALLVALUE PUSH2 0x2E0 JUMPI DUP2 PUSH1 0x3 NOT CALLDATASIZE ADD SLT PUSH2 0x2E0 JUMPI PUSH1 0x24 CALLDATALOAD SWAP1 PUSH8 0xFFFFFFFFFFFFFFFF DUP3 AND DUP1 SWAP3 SUB PUSH2 0xBAF JUMPI PUSH1 0x20 SWAP4 PUSH1 0xFF SWAP3 DUP3 DUP6 SWAP4 CALLDATALOAD DUP4 MSTORE DUP7 MSTORE DUP3 DUP3 KECCAK256 SWAP1 DUP3 MSTORE DUP6 MSTORE KECCAK256 SLOAD AND SWAP1 MLOAD SWAP1 ISZERO ISZERO DUP2 MSTORE RETURN JUMPDEST DUP3 DUP5 CALLVALUE PUSH2 0x220 JUMPI DUP2 PUSH1 0x3 NOT CALLDATASIZE ADD SLT PUSH2 0x220 JUMPI PUSH1 0x20 SWAP1 MLOAD PUSH32 0xD8AA0F3194971A2A116679F7C2090F6939C8D4E01A2A8D7E41D55E5351469E63 DUP2 MSTORE RETURN JUMPDEST POP DUP3 CALLVALUE PUSH2 0x2E0 JUMPI PUSH1 0xA0 CALLDATASIZE PUSH1 0x3 NOT ADD SLT PUSH2 0x2E0 JUMPI PUSH2 0xCE7 PUSH2 0x10E9 JUMP JUMPDEST PUSH8 0xFFFFFFFFFFFFFFFF SWAP3 DUP4 PUSH1 0x8 SLOAD AND SWAP4 DUP3 MLOAD PUSH1 0xA0 DUP2 ADD DUP2 DUP2 LT DUP4 DUP3 GT OR PUSH2 0xF0E JUMPI DUP5 MSTORE DUP5 CALLDATALOAD SWAP3 DUP3 DUP5 AND SWAP4 DUP5 DUP2 SUB PUSH2 0x220 JUMPI DUP3 MSTORE PUSH1 0x24 CALLDATALOAD SWAP2 PUSH1 0x2 DUP4 LT ISZERO PUSH2 0x220 JUMPI DUP3 PUSH1 0x20 DUP3 ADD MSTORE PUSH1 0x44 CALLDATALOAD SWAP5 PUSH1 0xF DUP7 LT ISZERO PUSH2 0x2E0 JUMPI DUP7 DUP3 ADD SWAP9 DUP7 DUP11 MSTORE PUSH1 0x64 CALLDATALOAD SWAP3 PUSH1 0x19 DUP5 LT ISZERO PUSH2 0xF0A JUMPI PUSH1 0x60 DUP2 ADD SWAP11 DUP5 DUP13 MSTORE PUSH1 0x84 CALLDATALOAD SWAP2 PUSH1 0x2 DUP4 LT ISZERO PUSH2 0xB98 JUMPI PUSH1 0x80 DUP4 SWAP2 ADD MSTORE PUSH2 0xD72 DUP8 PUSH2 0x1029 JUMP JUMPDEST MLOAD SWAP11 PUSH1 0xF DUP13 LT ISZERO PUSH2 0xEF7 JUMPI MLOAD SWAP11 PUSH1 0x19 DUP13 LT ISZERO PUSH2 0xEF7 JUMPI DUP10 MLOAD PUSH1 0x20 DUP2 ADD SWAP4 DUP5 MSTORE CALLER DUP2 DUP13 ADD MSTORE PUSH32 0xEEEEEEEEEEEEEEEEEEEEEEEEEEEEEEEEEEEEEEEE000000000000000000000000 PUSH1 0x60 DUP3 ADD MSTORE SWAP11 SWAP12 PUSH2 0xDE9 SWAP2 PUSH2 0xDDF SWAP1 PUSH1 0xA0 DUP15 PUSH2 0xDD2 DUP13 PUSH2 0x1029 JUMP JUMPDEST DUP12 PUSH1 0x80 DUP3 ADD MSTORE ADD SWAP1 PUSH2 0x1049 JUMP JUMPDEST PUSH1 0xC0 DUP13 ADD SWAP1 PUSH2 0x1056 JUMP JUMPDEST PUSH1 0xC0 DUP11 MSTORE PUSH1 0xE0 DUP11 ADD SWAP2 DUP11 DUP4 LT DUP9 DUP5 GT OR PUSH2 0xEE4 JUMPI DUP3 DUP11 MSTORE DUP11 MLOAD SWAP1 KECCAK256 SWAP10 DUP11 SWAP5 DUP6 DUP8 MSTORE PUSH1 0x6 PUSH1 0x20 MSTORE DUP11 DUP8 KECCAK256 CALLER DUP2 SLOAD PUSH32 0xFFFFFFFFFFFFFFFFFFFFFFFF0000000000000000000000000000000000000000 AND OR SWAP1 SSTORE PUSH1 0x8 SLOAD SWAP10 DUP10 DUP12 AND SWAP9 DUP10 SWAP7 CALLER DUP8 MSTORE PUSH2 0x100 DUP6 ADD MSTORE PUSH2 0xE56 DUP2 PUSH2 0x1029 JUMP JUMPDEST PUSH2 0x120 DUP5 ADD MSTORE PUSH2 0x140 DUP4 ADD PUSH2 0xE6A SWAP2 PUSH2 0x1049 JUMP JUMPDEST PUSH2 0x160 DUP3 ADD PUSH2 0xE78 SWAP2 PUSH2 0x1056 JUMP JUMPDEST PUSH2 0xE81 DUP3 PUSH2 0x1029 JUMP JUMPDEST PUSH2 0x180 ADD MSTORE PUSH1 0xC0 PUSH32 0x52162EB9E96E101651E01EF0D83E67CB88409E86AD473743BACD1FF4F2ED680C SWAP2 LOG3 DUP3 DUP3 EQ PUSH2 0xED1 JUMPI POP PUSH1 0x20 SWAP6 POP PUSH1 0x1 ADD AND SWAP1 PUSH8 0xFFFFFFFFFFFFFFFF NOT AND OR PUSH1 0x8 SSTORE MLOAD SWAP1 DUP2 MSTORE RETURN JUMPDEST DUP1 PUSH1 0x11 DUP9 PUSH4 0x4E487B71 PUSH1 0xE0 SHL PUSH1 0x24 SWAP5 MSTORE MSTORE REVERT JUMPDEST PUSH1 0x24 DUP7 PUSH1 0x41 DUP15 PUSH4 0x4E487B71 PUSH1 0xE0 SHL DUP4 MSTORE MSTORE REVERT JUMPDEST PUSH1 0x24 DUP7 PUSH1 0x21 DUP14 PUSH4 0x4E487B71 PUSH1 0xE0 SHL DUP4 MSTORE MSTORE REVERT JUMPDEST DUP5 DUP1 REVERT JUMPDEST PUSH1 0x24 DUP5 PUSH1 0x41 DUP9 PUSH4 0x4E487B71 PUSH1 0xE0 SHL DUP4 MSTORE MSTORE REVERT JUMPDEST SWAP2 SWAP1 POP CALLVALUE PUSH2 0x2E0 JUMPI PUSH1 0x20 CALLDATASIZE PUSH1 0x3 NOT ADD SLT PUSH2 0x2E0 JUMPI CALLDATALOAD PUSH32 0xFFFFFFFF00000000000000000000000000000000000000000000000000000000 DUP2 AND DUP1 SWAP2 SUB PUSH2 0x2E0 JUMPI PUSH1 0x20 SWAP3 POP PUSH32 0x7965DB0B00000000000000000000000000000000000000000000000000000000 DUP2 EQ SWAP1 DUP2 ISZERO PUSH2 0xF96 JUMPI JUMPDEST POP ISZERO ISZERO DUP2 MSTORE RETURN JUMPDEST PUSH32 0x1FFC9A700000000000000000000000000000000000000000000000000000000 SWAP2 POP EQ DUP4 PUSH2 0xF8F JUMP JUMPDEST PUSH1 0x4 CALLDATALOAD SWAP1 PUSH1 0x1 PUSH1 0x1 PUSH1 0xA0 SHL SUB DUP3 AND DUP3 SUB PUSH2 0xFD6 JUMPI JUMP JUMPDEST PUSH1 0x0 DUP1 REVERT JUMPDEST PUSH1 0x24 CALLDATALOAD SWAP1 PUSH1 0x1 PUSH1 0x1 PUSH1 0xA0 SHL SUB DUP3 AND DUP3 SUB PUSH2 0xFD6 JUMPI JUMP JUMPDEST SWAP1 PUSH1 0x1F DUP1 NOT SWAP2 ADD AND DUP2 ADD SWAP1 DUP2 LT PUSH8 0xFFFFFFFFFFFFFFFF DUP3 GT OR PUSH2 0x1013 JUMPI PUSH1 0x40 MSTORE JUMP JUMPDEST PUSH4 0x4E487B71 PUSH1 0xE0 SHL PUSH1 0x0 MSTORE PUSH1 0x41 PUSH1 0x4 MSTORE PUSH1 0x24 PUSH1 0x0 REVERT JUMPDEST PUSH1 0x2 GT ISZERO PUSH2 0x1033 JUMPI JUMP JUMPDEST PUSH4 0x4E487B71 PUSH1 0xE0 SHL PUSH1 0x0 MSTORE PUSH1 0x21 PUSH1 0x4 MSTORE PUSH1 0x24 PUSH1 0x0 REVERT JUMPDEST SWAP1 PUSH1 0xF DUP3 LT ISZERO PUSH2 0x1033 JUMPI MSTORE JUMP JUMPDEST SWAP1 PUSH1 0x19 DUP3 LT ISZERO PUSH2 0x1033 JUMPI MSTORE JUMP JUMPDEST ISZERO PUSH2 0x106A JUMPI JUMP JUMPDEST PUSH1 0x64 PUSH1 0x40 MLOAD PUSH3 0x461BCD PUSH1 0xE5 SHL DUP2 MSTORE PUSH1 0x20 PUSH1 0x4 DUP3 ADD MSTORE PUSH1 0x18 PUSH1 0x24 DUP3 ADD MSTORE PUSH32 0x43616C6C6572206973206E6F742061206578656375746F720000000000000000 PUSH1 0x44 DUP3 ADD MSTORE REVERT JUMPDEST SWAP2 SWAP1 DUP3 SUB SWAP2 DUP3 GT PUSH2 0x10BB JUMPI JUMP JUMPDEST PUSH4 0x4E487B71 PUSH1 0xE0 SHL PUSH1 0x0 MSTORE PUSH1 0x11 PUSH1 0x4 MSTORE PUSH1 0x24 PUSH1 0x0 REVERT JUMPDEST SWAP1 DUP2 PUSH1 0x20 SWAP2 SUB SLT PUSH2 0xFD6 JUMPI MLOAD DUP1 ISZERO ISZERO DUP2 SUB PUSH2 0xFD6 JUMPI SWAP1 JUMP JUMPDEST PUSH1 0xFF PUSH1 0x0 SLOAD AND PUSH2 0x10F5 JUMPI JUMP JUMPDEST PUSH1 0x4 PUSH1 0x40 MLOAD PUSH32 0xD93C066500000000000000000000000000000000000000000000000000000000 DUP2 MSTORE REVERT JUMPDEST PUSH1 0x40 MLOAD PUSH32 0xA9059CBB00000000000000000000000000000000000000000000000000000000 PUSH1 0x20 DUP3 ADD MSTORE PUSH1 0x1 PUSH1 0x1 PUSH1 0xA0 SHL SUB SWAP3 SWAP1 SWAP3 AND PUSH1 0x24 DUP4 ADD MSTORE PUSH1 0x44 DUP1 DUP4 ADD SWAP4 SWAP1 SWAP4 MSTORE SWAP2 DUP2 MSTORE PUSH2 0x1179 SWAP2 PUSH2 0x1174 PUSH1 0x64 DUP4 PUSH2 0xFF1 JUMP JUMPDEST PUSH2 0x12D1 JUMP JUMPDEST JUMP JUMPDEST DUP1 PUSH1 0x0 MSTORE PUSH1 0x1 PUSH1 0x20 MSTORE PUSH1 0x40 PUSH1 0x0 KECCAK256 CALLER PUSH1 0x0 MSTORE PUSH1 0x20 MSTORE PUSH1 0xFF PUSH1 0x40 PUSH1 0x0 KECCAK256 SLOAD AND ISZERO PUSH2 0x11A1 JUMPI POP JUMP JUMPDEST PUSH1 0x44 SWAP1 PUSH1 0x40 MLOAD SWAP1 PUSH32 0xE2517D3F00000000000000000000000000000000000000000000000000000000 DUP3 MSTORE CALLER PUSH1 0x4 DUP4 ADD MSTORE PUSH1 0x24 DUP3 ADD MSTORE REVERT JUMPDEST SWAP1 PUSH1 0x0 SWAP2 DUP1 DUP4 MSTORE PUSH1 0x1 PUSH1 0x20 MSTORE PUSH1 0x1 PUSH1 0x1 PUSH1 0xA0 SHL SUB PUSH1 0x40 DUP5 KECCAK256 SWAP3 AND SWAP2 DUP3 DUP5 MSTORE PUSH1 0x20 MSTORE PUSH1 0xFF PUSH1 0x40 DUP5 KECCAK256 SLOAD AND ISZERO PUSH1 0x0 EQ PUSH2 0x1254 JUMPI DUP1 DUP4 MSTORE PUSH1 0x1 PUSH1 0x20 MSTORE PUSH1 0x40 DUP4 KECCAK256 DUP3 DUP5 MSTORE PUSH1 0x20 MSTORE PUSH1 0x40 DUP4 KECCAK256 PUSH1 0x1 PUSH1 0xFF NOT DUP3 SLOAD AND OR SWAP1 SSTORE PUSH32 0x2F8788117E7EFF1D82E926EC794901D17C78024A50270940304540A733656F0D CALLER SWAP4 DUP1 LOG4 PUSH1 0x1 SWAP1 JUMP JUMPDEST POP POP SWAP1 JUMP JUMPDEST SWAP1 PUSH1 0x0 SWAP2 DUP1 DUP4 MSTORE PUSH1 0x1 PUSH1 0x20 MSTORE PUSH1 0x1 PUSH1 0x1 PUSH1 0xA0 SHL SUB PUSH1 0x40 DUP5 KECCAK256 SWAP3 AND SWAP2 DUP3 DUP5 MSTORE PUSH1 0x20 MSTORE PUSH1 0xFF PUSH1 0x40 DUP5 KECCAK256 SLOAD AND PUSH1 0x0 EQ PUSH2 0x1254 JUMPI DUP1 DUP4 MSTORE PUSH1 0x1 PUSH1 0x20 MSTORE PUSH1 0x40 DUP4 KECCAK256 DUP3 DUP5 MSTORE PUSH1 0x20 MSTORE PUSH1 0x40 DUP4 KECCAK256 PUSH1 0xFF NOT DUP2 SLOAD AND SWAP1 SSTORE PUSH32 0xF6391F5C32D9C69D2A47EA670B442974B53935D1EDC7FD64EB21E047A839171B CALLER SWAP4 DUP1 LOG4 PUSH1 0x1 SWAP1 JUMP JUMPDEST PUSH1 0x1 PUSH1 0x1 PUSH1 0xA0 SHL SUB AND SWAP1 PUSH1 0x0 DUP1 DUP3 PUSH1 0x20 DUP3 SWAP5 MLOAD SWAP2 ADD DUP3 DUP7 GAS CALL RETURNDATASIZE ISZERO PUSH2 0x13A4 JUMPI RETURNDATASIZE PUSH8 0xFFFFFFFFFFFFFFFF DUP2 GT PUSH2 0x1390 JUMPI PUSH1 0x40 MLOAD PUSH2 0x132E SWAP4 SWAP3 SWAP2 PUSH2 0x131D PUSH1 0x1F DUP3 ADD PUSH1 0x1F NOT AND PUSH1 0x20 ADD DUP4 PUSH2 0xFF1 JUMP JUMPDEST DUP2 MSTORE DUP1 SWAP3 PUSH1 0x20 RETURNDATASIZE SWAP3 ADD RETURNDATACOPY JUMPDEST DUP4 PUSH2 0x13B1 JUMP JUMPDEST DUP1 MLOAD SWAP1 DUP2 ISZERO ISZERO SWAP2 DUP3 PUSH2 0x1375 JUMPI JUMPDEST POP POP PUSH2 0x1344 JUMPI POP JUMP JUMPDEST PUSH1 0x24 SWAP1 PUSH1 0x40 MLOAD SWAP1 PUSH32 0x5274AFE700000000000000000000000000000000000000000000000000000000 DUP3 MSTORE PUSH1 0x4 DUP3 ADD MSTORE REVERT JUMPDEST PUSH2 0x1388 SWAP3 POP PUSH1 0x20 DUP1 SWAP2 DUP4 ADD ADD SWAP2 ADD PUSH2 0x10D1 JUMP JUMPDEST ISZERO CODESIZE DUP1 PUSH2 0x133B JUMP JUMPDEST PUSH1 0x24 DUP4 PUSH4 0x4E487B71 PUSH1 0xE0 SHL DUP2 MSTORE PUSH1 0x41 PUSH1 0x4 MSTORE REVERT JUMPDEST PUSH2 0x132E SWAP2 POP PUSH1 0x60 SWAP1 PUSH2 0x1328 JUMP JUMPDEST SWAP1 PUSH2 0x13F0 JUMPI POP DUP1 MLOAD ISZERO PUSH2 0x13C6 JUMPI DUP1 MLOAD SWAP1 PUSH1 0x20 ADD REVERT JUMPDEST PUSH1 0x4 PUSH1 0x40 MLOAD PUSH32 0x1425EA4200000000000000000000000000000000000000000000000000000000 DUP2 MSTORE REVERT JUMPDEST DUP2 MLOAD ISZERO DUP1 PUSH2 0x143B JUMPI JUMPDEST PUSH2 0x1401 JUMPI POP SWAP1 JUMP JUMPDEST PUSH1 0x24 SWAP1 PUSH1 0x1 PUSH1 0x1 PUSH1 0xA0 SHL SUB PUSH1 0x40 MLOAD SWAP2 PUSH32 0x9996B31500000000000000000000000000000000000000000000000000000000 DUP4 MSTORE AND PUSH1 0x4 DUP3 ADD MSTORE REVERT JUMPDEST POP DUP1 EXTCODESIZE ISZERO PUSH2 0x13F9 JUMP INVALID LOG2 PUSH5 0x6970667358 0x22 SLT KECCAK256 LOG1 DUP1 0xA7 MSIZE CODECOPY 0xBA DUP9 0xFC BLOBHASH SELFBALANCE 0xDD DUP10 0x4D 0xAE 0xBF PUSH31 0xCAD435ACED77E5D3B4253A0313C6D53364736F6C634300081800332F878811 PUSH31 0x7EFF1D82E926EC794901D17C78024A50270940304540A733656F0D00000000 "
        },
        "methodIdentifiers": {
          "DEFAULT_ADMIN_ROLE()": "a217fddf",
          "EXECUTOR_ROLE()": "07bd0265",
          "WITHDRAWER_ROLE()": "85f438c1",
          "balanceOf(address)": "70a08231",
          "cancel(bytes32)": "c4d252f5",
          "claimTokens(address,uint256)": "fe417fa5",
          "deposit(uint256)": "b6b55f25",
          "estimateFee(uint256)": "127e8e4d",
          "getRoleAdmin(bytes32)": "248a9ca3",
          "getTimelyToken()": "8bc048ac",
          "grantRole(bytes32,address)": "2f2ff15d",
          "hasRole(bytes32,address)": "91d14854",
          "isExecuted(bytes32,uint64)": "09749b62",
          "pause()": "8456cb59",
          "paused()": "5c975abb",
          "postTimelyCallback(address,(bytes32,uint64))": "1790b6f0",
          "publish((uint64,uint8,uint8,uint8,uint8))": "02fd39dc",
          "readTimelyMiddleware(address,bytes32)": "a5827b6a",
          "renounceRole(bytes32,address)": "36568abe",
          "revokeRole(bytes32,address)": "d547741f",
          "supportsInterface(bytes4)": "01ffc9a7",
          "unPause()": "f7b188a5",
          "withdraw(uint256)": "2e1a7d4d"
        }
      }
    }
  }
}