{
  "_format": "hh-sol-artifact-1",
  "contractName": "Airdrop",
  "sourceName": "contracts/token/Airdrop.sol",
  "abi": [
    {
      "inputs": [
        {
          "internalType": "address",
          "name": "timelyToken",
          "type": "address"
        },
        {
          "internalType": "uint256",
          "name": "newClaimAllocation",
          "type": "uint256"
        }
      ],
      "stateMutability": "nonpayable",
      "type": "constructor"
    },
    {
      "inputs": [],
      "name": "AccessControlBadConfirmation",
      "type": "error"
    },
    {
      "inputs": [
        {
          "internalType": "address",
          "name": "account",
          "type": "address"
        },
        {
          "internalType": "bytes32",
          "name": "neededRole",
          "type": "bytes32"
        }
      ],
      "name": "AccessControlUnauthorizedAccount",
      "type": "error"
    },
    {
      "inputs": [
        {
          "internalType": "address",
          "name": "target",
          "type": "address"
        }
      ],
      "name": "AddressEmptyCode",
      "type": "error"
    },
    {
      "inputs": [
        {
          "internalType": "address",
          "name": "account",
          "type": "address"
        }
      ],
      "name": "AddressInsufficientBalance",
      "type": "error"
    },
    {
      "inputs": [],
      "name": "EnforcedPause",
      "type": "error"
    },
    {
      "inputs": [],
      "name": "ExpectedPause",
      "type": "error"
    },
    {
      "inputs": [],
      "name": "FailedInnerCall",
      "type": "error"
    },
    {
      "inputs": [
        {
          "internalType": "address",
          "name": "token",
          "type": "address"
        }
      ],
      "name": "SafeERC20FailedOperation",
      "type": "error"
    },
    {
      "anonymous": false,
      "inputs": [
        {
          "indexed": false,
          "internalType": "address",
          "name": "claimer",
          "type": "address"
        },
        {
          "indexed": false,
          "internalType": "uint256",
          "name": "claimAllocation",
          "type": "uint256"
        }
      ],
      "name": "ClaimTokens",
      "type": "event"
    },
    {
      "anonymous": false,
      "inputs": [
        {
          "indexed": false,
          "internalType": "address",
          "name": "account",
          "type": "address"
        }
      ],
      "name": "Paused",
      "type": "event"
    },
    {
      "anonymous": false,
      "inputs": [
        {
          "indexed": true,
          "internalType": "bytes32",
          "name": "role",
          "type": "bytes32"
        },
        {
          "indexed": true,
          "internalType": "bytes32",
          "name": "previousAdminRole",
          "type": "bytes32"
        },
        {
          "indexed": true,
          "internalType": "bytes32",
          "name": "newAdminRole",
          "type": "bytes32"
        }
      ],
      "name": "RoleAdminChanged",
      "type": "event"
    },
    {
      "anonymous": false,
      "inputs": [
        {
          "indexed": true,
          "internalType": "bytes32",
          "name": "role",
          "type": "bytes32"
        },
        {
          "indexed": true,
          "internalType": "address",
          "name": "account",
          "type": "address"
        },
        {
          "indexed": true,
          "internalType": "address",
          "name": "sender",
          "type": "address"
        }
      ],
      "name": "RoleGranted",
      "type": "event"
    },
    {
      "anonymous": false,
      "inputs": [
        {
          "indexed": true,
          "internalType": "bytes32",
          "name": "role",
          "type": "bytes32"
        },
        {
          "indexed": true,
          "internalType": "address",
          "name": "account",
          "type": "address"
        },
        {
          "indexed": true,
          "internalType": "address",
          "name": "sender",
          "type": "address"
        }
      ],
      "name": "RoleRevoked",
      "type": "event"
    },
    {
      "anonymous": false,
      "inputs": [
        {
          "indexed": false,
          "internalType": "address",
          "name": "account",
          "type": "address"
        }
      ],
      "name": "Unpaused",
      "type": "event"
    },
    {
      "anonymous": false,
      "inputs": [
        {
          "indexed": false,
          "internalType": "uint256",
          "name": "newAllocation",
          "type": "uint256"
        }
      ],
      "name": "UpdateClaimAllocation",
      "type": "event"
    },
    {
      "inputs": [],
      "name": "DEFAULT_ADMIN_ROLE",
      "outputs": [
        {
          "internalType": "bytes32",
          "name": "",
          "type": "bytes32"
        }
      ],
      "stateMutability": "view",
      "type": "function"
    },
    {
      "inputs": [],
      "name": "claimTokens",
      "outputs": [],
      "stateMutability": "nonpayable",
      "type": "function"
    },
    {
      "inputs": [
        {
          "internalType": "bytes32",
          "name": "role",
          "type": "bytes32"
        }
      ],
      "name": "getRoleAdmin",
      "outputs": [
        {
          "internalType": "bytes32",
          "name": "",
          "type": "bytes32"
        }
      ],
      "stateMutability": "view",
      "type": "function"
    },
    {
      "inputs": [
        {
          "internalType": "bytes32",
          "name": "role",
          "type": "bytes32"
        },
        {
          "internalType": "address",
          "name": "account",
          "type": "address"
        }
      ],
      "name": "grantRole",
      "outputs": [],
      "stateMutability": "nonpayable",
      "type": "function"
    },
    {
      "inputs": [
        {
          "internalType": "bytes32",
          "name": "role",
          "type": "bytes32"
        },
        {
          "internalType": "address",
          "name": "account",
          "type": "address"
        }
      ],
      "name": "hasRole",
      "outputs": [
        {
          "internalType": "bool",
          "name": "",
          "type": "bool"
        }
      ],
      "stateMutability": "view",
      "type": "function"
    },
    {
      "inputs": [],
      "name": "pause",
      "outputs": [],
      "stateMutability": "nonpayable",
      "type": "function"
    },
    {
      "inputs": [],
      "name": "paused",
      "outputs": [
        {
          "internalType": "bool",
          "name": "",
          "type": "bool"
        }
      ],
      "stateMutability": "view",
      "type": "function"
    },
    {
      "inputs": [
        {
          "internalType": "bytes32",
          "name": "role",
          "type": "bytes32"
        },
        {
          "internalType": "address",
          "name": "callerConfirmation",
          "type": "address"
        }
      ],
      "name": "renounceRole",
      "outputs": [],
      "stateMutability": "nonpayable",
      "type": "function"
    },
    {
      "inputs": [
        {
          "internalType": "bytes32",
          "name": "role",
          "type": "bytes32"
        },
        {
          "internalType": "address",
          "name": "account",
          "type": "address"
        }
      ],
      "name": "revokeRole",
      "outputs": [],
      "stateMutability": "nonpayable",
      "type": "function"
    },
    {
      "inputs": [
        {
          "internalType": "bytes4",
          "name": "interfaceId",
          "type": "bytes4"
        }
      ],
      "name": "supportsInterface",
      "outputs": [
        {
          "internalType": "bool",
          "name": "",
          "type": "bool"
        }
      ],
      "stateMutability": "view",
      "type": "function"
    },
    {
      "inputs": [],
      "name": "unPause",
      "outputs": [],
      "stateMutability": "nonpayable",
      "type": "function"
    },
    {
      "inputs": [
        {
          "internalType": "uint256",
          "name": "newAllocation",
          "type": "uint256"
        }
      ],
      "name": "updateClaimAllocation",
      "outputs": [],
      "stateMutability": "nonpayable",
      "type": "function"
    }
  ],
  "bytecode": "0x60803461009557601f610a2538819003918201601f19168301916001600160401b0383118484101761009a578084926040948552833981010312610095578051906001600160a01b03821682036100955760200151600180546001600160a81b03191660089390931b610100600160a81b031692909217909155600255610085336100b0565b506040516108e490816101418239f35b600080fd5b634e487b7160e01b600052604160045260246000fd5b6001600160a01b031660008181527fad3228b676f7d3cd4284a5443f17f1962b36e491b30a40b2405849e597ba5fb5602052604081205490919060ff1661013c57818052816020526040822081835260205260408220600160ff1982541617905533917f2f8788117e7eff1d82e926ec794901d17c78024a50270940304540a733656f0d8180a4600190565b509056fe6080604081815260048036101561001557600080fd5b600092833560e01c90816301ffc9a71461055757508063248a9ca31461052e5780632f2ff15d1461051057806336568abe146104bb57806348c54b9d1461028c5780635c975abb1461026857806367a05b1a146102135780638456cb59146101b957806391d1485414610180578063a217fddf14610165578063d547741f1461012c5763f7b188a5146100a757600080fd5b346101285782600319360112610128576100bf610621565b6001549060ff821615610101575060ff1916600155513381527f5db9ee0a495bf2e6ff9c91a7834c1ba4fdd244a5e8aa4e537bd38aeae4b073aa90602090a180f35b82517f8dfc202b000000000000000000000000000000000000000000000000000000008152fd5b8280fd5b50503461016157600161015d91610158610145366105f6565b9390928387528660205286200154610692565b610737565b5080f35b5080fd5b50503461016157816003193601126101615751908152602090f35b5050346101615760ff81602093610196366105f6565b9082528186526001600160a01b0383832091168252855220541690519015158152f35b50503461016157816003193601126101615760207f62e78cea01bee320cd4e420270b5ea74000d11b0c9f74754ebdbfc544b05a258916101f7610621565b6101ff6107ad565b600160ff198154161760015551338152a180f35b5034610128576020366003190112610128577fcfe4d10341aa513519b63ea7e98d3aa8ec52909afd3ea7f057fdb452a1aebf759160209135906102546107ad565b61025c610621565b8160025551908152a180f35b50503461016157816003193601126101615760209060ff6001541690519015158152f35b5090346101285782600319360112610128576102a66107ad565b6002549182156104795733845260209260038452828520546104375760015483517fa9059cbb0000000000000000000000000000000000000000000000000000000086820190815233602483015260448083019490945292815260089190911c6001600160a01b031691601f1991879182916103236064826107e3565b519082865af13d1561042a573d67ffffffffffffffff81116104175790610367929161035888885194601f84011601846107e3565b82523d888884013e5b8361081b565b80518581151591826103f2575b505090506103c55760025433808752600386528487208290558451908152602081019190915285907f4d7f917f6b905f28ba5297e6c224a6cfec20ac6a3698a55b412d30b95ad25d2f90604090a180f35b60249251917f5274afe7000000000000000000000000000000000000000000000000000000008352820152fd5b83809293500103126104135784015180159081150361041357808538610374565b8580fd5b602488604187634e487b7160e01b835252fd5b6103679150606090610361565b5082606492519162461bcd60e51b8352820152601660248201527f416c726561647920636c61696d656420746f6b656e73000000000000000000006044820152fd5b6020606492519162461bcd60e51b8352820152601460248201527f4e6f20636c61696d20616c6c6f636174696f6e730000000000000000000000006044820152fd5b50919034610161576104cc366105f6565b91336001600160a01b038416036104e857509061015d91610737565b8490517f6697b232000000000000000000000000000000000000000000000000000000008152fd5b50503461016157600161015d91610529610145366105f6565b6106b8565b503461012857602036600319011261012857816020936001923581528085522001549051908152f35b9250503461012857602036600319011261012857357fffffffff00000000000000000000000000000000000000000000000000000000811680910361012857602092507f7965db0b0000000000000000000000000000000000000000000000000000000081149081156105cc575b5015158152f35b7f01ffc9a700000000000000000000000000000000000000000000000000000000915014386105c5565b604090600319011261061c57600435906024356001600160a01b038116810361061c5790565b600080fd5b3360009081527fad3228b676f7d3cd4284a5443f17f1962b36e491b30a40b2405849e597ba5fb5602052604081205460ff161561065b5750565b604490604051907fe2517d3f0000000000000000000000000000000000000000000000000000000082523360048301526024820152fd5b80600052600060205260406000203360005260205260ff604060002054161561065b5750565b90600091808352826020526001600160a01b036040842092169182845260205260ff6040842054161560001461073257808352826020526040832082845260205260408320600160ff198254161790557f2f8788117e7eff1d82e926ec794901d17c78024a50270940304540a733656f0d339380a4600190565b505090565b90600091808352826020526001600160a01b036040842092169182845260205260ff6040842054166000146107325780835282602052604083208284526020526040832060ff1981541690557ff6391f5c32d9c69d2a47ea670b442974b53935d1edc7fd64eb21e047a839171b339380a4600190565b60ff600154166107b957565b60046040517fd93c0665000000000000000000000000000000000000000000000000000000008152fd5b90601f8019910116810190811067ffffffffffffffff82111761080557604052565b634e487b7160e01b600052604160045260246000fd5b9061085a575080511561083057805190602001fd5b60046040517f1425ea42000000000000000000000000000000000000000000000000000000008152fd5b815115806108a5575b61086b575090565b6024906001600160a01b03604051917f9996b315000000000000000000000000000000000000000000000000000000008352166004820152fd5b50803b1561086356fea26469706673582212200a689875aadb357ea2db4a07dea56c104338f42159594761903b52c0791c418864736f6c63430008180033",
  "linkReferences": {},
  "deployedLinkReferences": {}
}