{
  "_format": "hh-sol-artifact-1",
  "contractName": "Timely",
  "sourceName": "contracts/Timely.sol",
  "abi": [
    {
      "inputs": [
        {
          "internalType": "address",
          "name": "feeManager",
          "type": "address"
        },
        {
          "internalType": "address",
          "name": "timelyToken",
          "type": "address"
        }
      ],
      "stateMutability": "nonpayable",
      "type": "constructor"
    },
    {
      "inputs": [],
      "name": "AccessControlBadConfirmation",
      "type": "error"
    },
    {
      "inputs": [
        {
          "internalType": "address",
          "name": "account",
          "type": "address"
        },
        {
          "internalType": "bytes32",
          "name": "neededRole",
          "type": "bytes32"
        }
      ],
      "name": "AccessControlUnauthorizedAccount",
      "type": "error"
    },
    {
      "inputs": [
        {
          "internalType": "address",
          "name": "target",
          "type": "address"
        }
      ],
      "name": "AddressEmptyCode",
      "type": "error"
    },
    {
      "inputs": [
        {
          "internalType": "address",
          "name": "account",
          "type": "address"
        }
      ],
      "name": "AddressInsufficientBalance",
      "type": "error"
    },
    {
      "inputs": [],
      "name": "EnforcedPause",
      "type": "error"
    },
    {
      "inputs": [],
      "name": "ExpectedPause",
      "type": "error"
    },
    {
      "inputs": [],
      "name": "FailedInnerCall",
      "type": "error"
    },
    {
      "inputs": [],
      "name": "IdentifierAlreadyCancelled",
      "type": "error"
    },
    {
      "inputs": [
        {
          "internalType": "bytes32",
          "name": "identifier",
          "type": "bytes32"
        },
        {
          "internalType": "uint64",
          "name": "index",
          "type": "uint64"
        }
      ],
      "name": "IndexAlreadyExecuted",
      "type": "error"
    },
    {
      "inputs": [
        {
          "internalType": "uint256",
          "name": "amount",
          "type": "uint256"
        }
      ],
      "name": "InsufficientAmount",
      "type": "error"
    },
    {
      "inputs": [],
      "name": "InsufficientFee",
      "type": "error"
    },
    {
      "inputs": [
        {
          "internalType": "address",
          "name": "token",
          "type": "address"
        }
      ],
      "name": "SafeERC20FailedOperation",
      "type": "error"
    },
    {
      "inputs": [],
      "name": "UnAuthorize",
      "type": "error"
    },
    {
      "anonymous": false,
      "inputs": [
        {
          "indexed": false,
          "internalType": "bytes32",
          "name": "identifier",
          "type": "bytes32"
        }
      ],
      "name": "Cancelled",
      "type": "event"
    },
    {
      "anonymous": false,
      "inputs": [
        {
          "indexed": false,
          "internalType": "address",
          "name": "tokenId",
          "type": "address"
        },
        {
          "indexed": false,
          "internalType": "uint256",
          "name": "amount",
          "type": "uint256"
        }
      ],
      "name": "ClaimedTokens",
      "type": "event"
    },
    {
      "anonymous": false,
      "inputs": [
        {
          "indexed": false,
          "internalType": "address",
          "name": "sender",
          "type": "address"
        },
        {
          "indexed": false,
          "internalType": "uint256",
          "name": "amount",
          "type": "uint256"
        }
      ],
      "name": "Deposited",
      "type": "event"
    },
    {
      "anonymous": false,
      "inputs": [
        {
          "indexed": false,
          "internalType": "bytes32",
          "name": "identifier",
          "type": "bytes32"
        },
        {
          "indexed": false,
          "internalType": "uint64",
          "name": "index",
          "type": "uint64"
        }
      ],
      "name": "Executed",
      "type": "event"
    },
    {
      "anonymous": false,
      "inputs": [
        {
          "indexed": false,
          "internalType": "address",
          "name": "account",
          "type": "address"
        }
      ],
      "name": "Paused",
      "type": "event"
    },
    {
      "anonymous": false,
      "inputs": [
        {
          "indexed": true,
          "internalType": "uint64",
          "name": "nonce",
          "type": "uint64"
        },
        {
          "indexed": true,
          "internalType": "bytes32",
          "name": "identifier",
          "type": "bytes32"
        },
        {
          "indexed": false,
          "internalType": "address",
          "name": "sender",
          "type": "address"
        },
        {
          "indexed": false,
          "internalType": "uint64",
          "name": "delay",
          "type": "uint64"
        },
        {
          "indexed": false,
          "internalType": "enum Data.Schedule",
          "name": "iSchedule",
          "type": "uint8"
        },
        {
          "indexed": false,
          "internalType": "enum Data.Minutes",
          "name": "iMinutes",
          "type": "uint8"
        },
        {
          "indexed": false,
          "internalType": "enum Data.Hours",
          "name": "iHours",
          "type": "uint8"
        },
        {
          "indexed": false,
          "internalType": "enum Data.Middleware",
          "name": "middleware",
          "type": "uint8"
        }
      ],
      "name": "Published",
      "type": "event"
    },
    {
      "anonymous": false,
      "inputs": [
        {
          "indexed": true,
          "internalType": "bytes32",
          "name": "role",
          "type": "bytes32"
        },
        {
          "indexed": true,
          "internalType": "bytes32",
          "name": "previousAdminRole",
          "type": "bytes32"
        },
        {
          "indexed": true,
          "internalType": "bytes32",
          "name": "newAdminRole",
          "type": "bytes32"
        }
      ],
      "name": "RoleAdminChanged",
      "type": "event"
    },
    {
      "anonymous": false,
      "inputs": [
        {
          "indexed": true,
          "internalType": "bytes32",
          "name": "role",
          "type": "bytes32"
        },
        {
          "indexed": true,
          "internalType": "address",
          "name": "account",
          "type": "address"
        },
        {
          "indexed": true,
          "internalType": "address",
          "name": "sender",
          "type": "address"
        }
      ],
      "name": "RoleGranted",
      "type": "event"
    },
    {
      "anonymous": false,
      "inputs": [
        {
          "indexed": true,
          "internalType": "bytes32",
          "name": "role",
          "type": "bytes32"
        },
        {
          "indexed": true,
          "internalType": "address",
          "name": "account",
          "type": "address"
        },
        {
          "indexed": true,
          "internalType": "address",
          "name": "sender",
          "type": "address"
        }
      ],
      "name": "RoleRevoked",
      "type": "event"
    },
    {
      "anonymous": false,
      "inputs": [
        {
          "indexed": false,
          "internalType": "address",
          "name": "account",
          "type": "address"
        }
      ],
      "name": "Unpaused",
      "type": "event"
    },
    {
      "anonymous": false,
      "inputs": [
        {
          "indexed": false,
          "internalType": "address",
          "name": "sender",
          "type": "address"
        },
        {
          "indexed": false,
          "internalType": "uint256",
          "name": "amount",
          "type": "uint256"
        }
      ],
      "name": "Withdrawn",
      "type": "event"
    },
    {
      "inputs": [],
      "name": "DEFAULT_ADMIN_ROLE",
      "outputs": [
        {
          "internalType": "bytes32",
          "name": "",
          "type": "bytes32"
        }
      ],
      "stateMutability": "view",
      "type": "function"
    },
    {
      "inputs": [],
      "name": "EXECUTOR_ROLE",
      "outputs": [
        {
          "internalType": "bytes32",
          "name": "",
          "type": "bytes32"
        }
      ],
      "stateMutability": "view",
      "type": "function"
    },
    {
      "inputs": [],
      "name": "WITHDRAWER_ROLE",
      "outputs": [
        {
          "internalType": "bytes32",
          "name": "",
          "type": "bytes32"
        }
      ],
      "stateMutability": "view",
      "type": "function"
    },
    {
      "inputs": [
        {
          "internalType": "address",
          "name": "sender",
          "type": "address"
        }
      ],
      "name": "balanceOf",
      "outputs": [
        {
          "internalType": "uint256",
          "name": "",
          "type": "uint256"
        }
      ],
      "stateMutability": "view",
      "type": "function"
    },
    {
      "inputs": [
        {
          "internalType": "bytes32",
          "name": "identifier",
          "type": "bytes32"
        }
      ],
      "name": "cancel",
      "outputs": [],
      "stateMutability": "nonpayable",
      "type": "function"
    },
    {
      "inputs": [
        {
          "internalType": "address",
          "name": "tokenId",
          "type": "address"
        },
        {
          "internalType": "uint256",
          "name": "amount",
          "type": "uint256"
        }
      ],
      "name": "claimTokens",
      "outputs": [],
      "stateMutability": "nonpayable",
      "type": "function"
    },
    {
      "inputs": [
        {
          "internalType": "uint256",
          "name": "amount",
          "type": "uint256"
        }
      ],
      "name": "deposit",
      "outputs": [],
      "stateMutability": "nonpayable",
      "type": "function"
    },
    {
      "inputs": [
        {
          "internalType": "uint256",
          "name": "indexCount",
          "type": "uint256"
        }
      ],
      "name": "estimateFee",
      "outputs": [
        {
          "internalType": "uint256",
          "name": "",
          "type": "uint256"
        }
      ],
      "stateMutability": "view",
      "type": "function"
    },
    {
      "inputs": [
        {
          "internalType": "bytes32",
          "name": "role",
          "type": "bytes32"
        }
      ],
      "name": "getRoleAdmin",
      "outputs": [
        {
          "internalType": "bytes32",
          "name": "",
          "type": "bytes32"
        }
      ],
      "stateMutability": "view",
      "type": "function"
    },
    {
      "inputs": [],
      "name": "getTimelyToken",
      "outputs": [
        {
          "internalType": "address",
          "name": "",
          "type": "address"
        }
      ],
      "stateMutability": "view",
      "type": "function"
    },
    {
      "inputs": [
        {
          "internalType": "bytes32",
          "name": "role",
          "type": "bytes32"
        },
        {
          "internalType": "address",
          "name": "account",
          "type": "address"
        }
      ],
      "name": "grantRole",
      "outputs": [],
      "stateMutability": "nonpayable",
      "type": "function"
    },
    {
      "inputs": [
        {
          "internalType": "bytes32",
          "name": "role",
          "type": "bytes32"
        },
        {
          "internalType": "address",
          "name": "account",
          "type": "address"
        }
      ],
      "name": "hasRole",
      "outputs": [
        {
          "internalType": "bool",
          "name": "",
          "type": "bool"
        }
      ],
      "stateMutability": "view",
      "type": "function"
    },
    {
      "inputs": [
        {
          "internalType": "bytes32",
          "name": "identifier",
          "type": "bytes32"
        },
        {
          "internalType": "uint64",
          "name": "index",
          "type": "uint64"
        }
      ],
      "name": "isExecuted",
      "outputs": [
        {
          "internalType": "bool",
          "name": "",
          "type": "bool"
        }
      ],
      "stateMutability": "view",
      "type": "function"
    },
    {
      "inputs": [],
      "name": "pause",
      "outputs": [],
      "stateMutability": "nonpayable",
      "type": "function"
    },
    {
      "inputs": [],
      "name": "paused",
      "outputs": [
        {
          "internalType": "bool",
          "name": "",
          "type": "bool"
        }
      ],
      "stateMutability": "view",
      "type": "function"
    },
    {
      "inputs": [
        {
          "internalType": "address",
          "name": "receiver",
          "type": "address"
        },
        {
          "components": [
            {
              "internalType": "bytes32",
              "name": "identifier",
              "type": "bytes32"
            },
            {
              "internalType": "uint64",
              "name": "index",
              "type": "uint64"
            }
          ],
          "internalType": "struct Data.TimePayloadIn",
          "name": "timePayload",
          "type": "tuple"
        }
      ],
      "name": "postTimelyCallback",
      "outputs": [],
      "stateMutability": "nonpayable",
      "type": "function"
    },
    {
      "inputs": [
        {
          "components": [
            {
              "internalType": "uint64",
              "name": "delay",
              "type": "uint64"
            },
            {
              "internalType": "enum Data.Schedule",
              "name": "iSchedule",
              "type": "uint8"
            },
            {
              "internalType": "enum Data.Minutes",
              "name": "iMinutes",
              "type": "uint8"
            },
            {
              "internalType": "enum Data.Hours",
              "name": "iHours",
              "type": "uint8"
            },
            {
              "internalType": "enum Data.Middleware",
              "name": "middleware",
              "type": "uint8"
            }
          ],
          "internalType": "struct Data.TimePayload",
          "name": "timePayload",
          "type": "tuple"
        }
      ],
      "name": "publish",
      "outputs": [
        {
          "internalType": "bytes32",
          "name": "",
          "type": "bytes32"
        }
      ],
      "stateMutability": "nonpayable",
      "type": "function"
    },
    {
      "inputs": [
        {
          "internalType": "address",
          "name": "receiver",
          "type": "address"
        },
        {
          "internalType": "bytes32",
          "name": "identifier",
          "type": "bytes32"
        }
      ],
      "name": "readTimelyMiddleware",
      "outputs": [
        {
          "internalType": "bool",
          "name": "",
          "type": "bool"
        }
      ],
      "stateMutability": "view",
      "type": "function"
    },
    {
      "inputs": [
        {
          "internalType": "bytes32",
          "name": "role",
          "type": "bytes32"
        },
        {
          "internalType": "address",
          "name": "callerConfirmation",
          "type": "address"
        }
      ],
      "name": "renounceRole",
      "outputs": [],
      "stateMutability": "nonpayable",
      "type": "function"
    },
    {
      "inputs": [
        {
          "internalType": "bytes32",
          "name": "role",
          "type": "bytes32"
        },
        {
          "internalType": "address",
          "name": "account",
          "type": "address"
        }
      ],
      "name": "revokeRole",
      "outputs": [],
      "stateMutability": "nonpayable",
      "type": "function"
    },
    {
      "inputs": [
        {
          "internalType": "bytes4",
          "name": "interfaceId",
          "type": "bytes4"
        }
      ],
      "name": "supportsInterface",
      "outputs": [
        {
          "internalType": "bool",
          "name": "",
          "type": "bool"
        }
      ],
      "stateMutability": "view",
      "type": "function"
    },
    {
      "inputs": [],
      "name": "unPause",
      "outputs": [],
      "stateMutability": "nonpayable",
      "type": "function"
    },
    {
      "inputs": [
        {
          "internalType": "uint256",
          "name": "amount",
          "type": "uint256"
        }
      ],
      "name": "withdraw",
      "outputs": [],
      "stateMutability": "nonpayable",
      "type": "function"
    }
  ],
  "bytecode": "0x608034620000c557601f6200175238819003918201601f19168301916001600160401b03831184841017620000ca578084926040948552833981010312620000c5576200005a60206200005283620000e0565b9201620000e0565b9060ff19600054166000556200007033620000f5565b506200007c3362000198565b50620000883362000236565b50600280546001600160a01b039384166001600160a01b0319918216179091556003805492909316911617905560405161147a9081620002b88239f35b600080fd5b634e487b7160e01b600052604160045260246000fd5b51906001600160a01b0382168203620000c557565b6001600160a01b031660008181527fc9ee83ecf8e561e5df8e9e3a8d108a689296832fb5d541ca3c450b10eaabf8e160205260408120549091907fd8aa0f3194971a2a116679f7c2090f6939c8d4e01a2a8d7e41d55e5351469e639060ff16620001935780835260016020526040832082845260205260408320600160ff1982541617905560008051602062001732833981519152339380a4600190565b505090565b6001600160a01b031660008181527f55183b8ac4a82f4a7e1e58b6f4191216f6e4ec65d5c848685f0148e75403eba060205260408120549091907f10dac8c06a04bec0b551627dad28bc00d6516b0caacd1c7b345fcdb5211334e49060ff16620001935780835260016020526040832082845260205260408320600160ff1982541617905560008051602062001732833981519152339380a4600190565b6001600160a01b031660008181527fa6eef7e35abe7026729641147f7915573c7e97b47efa546f5f6e3230263bcb49602052604081205490919060ff16620002b35781805260016020526040822081835260205260408220600160ff198254161790553391600080516020620017328339815191528180a4600190565b509056fe608060409080825260048036101561001657600080fd5b600091823560e01c90816301ffc9a714610f215750806302fd39dc14610ccc57806307bd026514610c9157806309749b6214610c46578063127e8e4d14610bb35780631790b6f0146108a3578063248a9ca3146108785780632e1a7d4d146107af5780632f2ff15d1461078657806336568abe146107275780635c975abb1461070557806370a08231146106ce5780638456cb591461063d57806385f438c1146106025780638bc048ac146105da57806391d1485414610592578063a217fddf14610577578063a5827b6a146104ca578063b6b55f25146103c5578063c4d252f514610322578063d547741f146102e4578063f7b188a5146102245763fe417fa51461012157600080fd5b34610220578260031936011261022057610139610fc0565b602435917f10dac8c06a04bec0b551627dad28bc00d6516b0caacd1c7b345fcdb5211334e4845260016020528484203360005260205260ff856000205416156101dd57506101d77fe9aa550fd75d0d28e07fa9dd67d3ae705678776f6c4a75abd09534f93e7d790793946101b784336001600160a01b03861661111f565b5192839283602090939291936001600160a01b0360408201951681520152565b0390a180f35b606490602086519162461bcd60e51b8352820152601a60248201527f43616c6c6572206973206e6f74206120776974686472617765720000000000006044820152fd5b5080fd5b508290346102e057826003193601126102e0577fd8aa0f3194971a2a116679f7c2090f6939c8d4e01a2a8d7e41d55e5351469e63835260016020528183203360005260205261027960ff836000205416611063565b82549060ff8216156102b9575060ff19168255513381527f5db9ee0a495bf2e6ff9c91a7834c1ba4fdd244a5e8aa4e537bd38aeae4b073aa90602090a180f35b82517f8dfc202b000000000000000000000000000000000000000000000000000000008152fd5b8280fd5b5082346102e057806003193601126102e05761031e91356103196001610308610fdb565b93838752816020528620015461117b565b611259565b5080f35b5082346102e05760203660031901126102e0578135916103406110e9565b8284526006602052336001600160a01b0383862054160361039e5750816020917fbaa1eb22f2a492ba1a5fea61b8df4d27c6c8b5f3971e63bb58fa14ff72eedb7093855260078352808520600160ff1982541617905551908152a180f35b90517f5a519520000000000000000000000000000000000000000000000000000000008152fd5b509134610220576020366003190112610220578235906103e36110e9565b6001600160a01b03600254168151907f23b872dd0000000000000000000000000000000000000000000000000000000060208301523360248301523060448301528360648301526064825260a0820182811067ffffffffffffffff8211176104b557835261045191906112d1565b33835260056020528083208054908382018092116104a257555133815260208101919091527f2da466a7b24304f47e87fa2e1e5a81b9831ce54fec19055ce277ca2f39ba42c49080604081016101d7565b602485601188634e487b7160e01b835252fd5b604187634e487b7160e01b6000525260246000fd5b5082346102e057806003193601126102e05760206001600160a01b039260246104f1610fc0565b91845195869384927f3076315a000000000000000000000000000000000000000000000000000000008452843590840152165afa91821561056d576020939261053e575b50519015158152f35b61055f919250833d8511610566575b6105578183610ff1565b8101906110d1565b9083610535565b503d61054d565b81513d85823e3d90fd5b82843461022057816003193601126102205751908152602090f35b508290346102e057816003193601126102e0576001600160a01b03826020946105b9610fdb565b9335815260018652209116600052825260ff81600020541690519015158152f35b8284346102205781600319360112610220576020906001600160a01b03600254169051908152f35b828434610220578160031936011261022057602090517f10dac8c06a04bec0b551627dad28bc00d6516b0caacd1c7b345fcdb5211334e48152f35b82843461022057816003193601126102205760207f62e78cea01bee320cd4e420270b5ea74000d11b0c9f74754ebdbfc544b05a258917fd8aa0f3194971a2a116679f7c2090f6939c8d4e01a2a8d7e41d55e5351469e638452600182528084203360005282526106b360ff826000205416611063565b6106bb6110e9565b835460ff1916600117845551338152a180f35b82843461022057602036600319011261022057806020926001600160a01b036106f5610fc0565b1681526005845220549051908152f35b82843461022057816003193601126102205760ff602092541690519015158152f35b509134610220578060031936011261022057610741610fdb565b90336001600160a01b0383160361075e575061031e919235611259565b8390517f6697b232000000000000000000000000000000000000000000000000000000008152fd5b5082346102e057806003193601126102e05761031e91356107aa6001610308610fdb565b6111d8565b5082346102e05760203660031901126102e0578135916107cd6110e9565b33845260056020528184205483811061084b57847f7084f5476618d8e60b11ef0d7d3f06914655adb8793e28ff7f018d4c76d505d56101d7868661081d82336001600160a01b036002541661111f565b33855260056020528085206108338382546110ae565b90555133815260208101919091529081906040820190565b60249251917f77b8dde3000000000000000000000000000000000000000000000000000000008352820152fd5b508290346102e05760203660031901126102e057816020936001923581528285522001549051908152f35b5082346102e05760603660031901126102e0576108be610fc0565b81602319360112610baf57815167ffffffffffffffff9080840182811182821017610b9c5784526024358152604435928284168403610b98576020908183019485527fd8aa0f3194971a2a116679f7c2090f6939c8d4e01a2a8d7e41d55e5351469e63885260018252858820338952825261093e60ff878a205416611063565b825188526007825260ff8689205416610b705782518852868252858820848651168952825260ff8689205416610b24576001600160a01b03809116908189526005835286892054906003541683600160248b8b51948593849263127e8e4d60e01b84528301525afa908115610b1a578a91610ae9575b50809110610ac157908891818352600584526109d48884209182546110ae565b9055803b1561022057819060448851809481937f308d6c9600000000000000000000000000000000000000000000000000000000835288518d840152898b511660248401525af18015610ab757610a93575b5081518752948552838620835183166000908152955293839020805460ff1916600117905592519051915190815267ffffffffffffffff919092161660208201527f35d18cd21af9042cd9cbf41cdb1ae42a964160fdb9890df6d10fd6c3cff433459080604081016101d7565b838111610aa45785526101d7610a26565b602488604189634e487b7160e01b835252fd5b86513d8a823e3d90fd5b8787517f025dbdd4000000000000000000000000000000000000000000000000000000008152fd5b90508381813d8311610b13575b610b008183610ff1565b81010312610b0f57518a6109b4565b8980fd5b503d610af6565b88513d8c823e3d90fd5b505051915192517fee9bb42200000000000000000000000000000000000000000000000000000000815293840191825290911667ffffffffffffffff1660208201528190036040019150fd5b8686517f0a9933e4000000000000000000000000000000000000000000000000000000008152fd5b8680fd5b602487604188634e487b7160e01b835252fd5b8380fd5b50913461022057602092836003193601126102e057836001600160a01b036003541691602484518094819363127e8e4d60e01b83528035908301525afa928315610c3b578093610c06575b505051908152f35b909192508382813d8311610c34575b610c1f8183610ff1565b81010312610c31575051903880610bfe565b80fd5b503d610c15565b8251903d90823e3d90fd5b508290346102e057816003193601126102e0576024359067ffffffffffffffff8216809203610baf5760209360ff928285933583528652828220908252855220541690519015158152f35b828434610220578160031936011261022057602090517fd8aa0f3194971a2a116679f7c2090f6939c8d4e01a2a8d7e41d55e5351469e638152f35b5082346102e05760a03660031901126102e057610ce76110e9565b67ffffffffffffffff92836008541693825160a0810181811083821117610f0e578452843592828416938481036102205782526024359160028310156102205782602082015260443594600f8610156102e05786820198868a52606435926019841015610f0a57606081019a848c52608435916002831015610b9857608083910152610d7287611029565b519a600f8c1015610ef757519a60198c1015610ef75789516020810193845233818c01527feeeeeeeeeeeeeeeeeeeeeeeeeeeeeeeeeeeeeeee00000000000000000000000060608201529a9b610de991610ddf9060a08e610dd28c611029565b8b60808201520190611049565b60c08c0190611056565b60c08a5260e08a01918a831088841117610ee457828a528a519020998a9485875260066020528a87203381547fffffffffffffffffffffffff00000000000000000000000000000000000000001617905560085499898b16988996338752610100850152610e5681611029565b6101208401526101408301610e6a91611049565b6101608201610e7891611056565b610e8182611029565b610180015260c07f52162eb9e96e101651e01ef0d83e67cb88409e86ad473743bacd1ff4f2ed680c91a3828214610ed1575060209550600101169067ffffffffffffffff19161760085551908152f35b80601188634e487b7160e01b6024945252fd5b60248660418e634e487b7160e01b835252fd5b60248660218d634e487b7160e01b835252fd5b8480fd5b602484604188634e487b7160e01b835252fd5b919050346102e05760203660031901126102e057357fffffffff0000000000000000000000000000000000000000000000000000000081168091036102e057602092507f7965db0b000000000000000000000000000000000000000000000000000000008114908115610f96575b5015158152f35b7f01ffc9a70000000000000000000000000000000000000000000000000000000091501483610f8f565b600435906001600160a01b0382168203610fd657565b600080fd5b602435906001600160a01b0382168203610fd657565b90601f8019910116810190811067ffffffffffffffff82111761101357604052565b634e487b7160e01b600052604160045260246000fd5b6002111561103357565b634e487b7160e01b600052602160045260246000fd5b90600f8210156110335752565b9060198210156110335752565b1561106a57565b606460405162461bcd60e51b815260206004820152601860248201527f43616c6c6572206973206e6f742061206578656375746f7200000000000000006044820152fd5b919082039182116110bb57565b634e487b7160e01b600052601160045260246000fd5b90816020910312610fd657518015158103610fd65790565b60ff600054166110f557565b60046040517fd93c0665000000000000000000000000000000000000000000000000000000008152fd5b6040517fa9059cbb0000000000000000000000000000000000000000000000000000000060208201526001600160a01b0392909216602483015260448083019390935291815261117991611174606483610ff1565b6112d1565b565b80600052600160205260406000203360005260205260ff60406000205416156111a15750565b604490604051907fe2517d3f0000000000000000000000000000000000000000000000000000000082523360048301526024820152fd5b9060009180835260016020526001600160a01b036040842092169182845260205260ff604084205416156000146112545780835260016020526040832082845260205260408320600160ff198254161790557f2f8788117e7eff1d82e926ec794901d17c78024a50270940304540a733656f0d339380a4600190565b505090565b9060009180835260016020526001600160a01b036040842092169182845260205260ff604084205416600014611254578083526001602052604083208284526020526040832060ff1981541690557ff6391f5c32d9c69d2a47ea670b442974b53935d1edc7fd64eb21e047a839171b339380a4600190565b6001600160a01b031690600080826020829451910182865af13d156113a4573d67ffffffffffffffff81116113905760405161132e93929161131d601f8201601f191660200183610ff1565b8152809260203d92013e5b836113b1565b8051908115159182611375575b50506113445750565b602490604051907f5274afe70000000000000000000000000000000000000000000000000000000082526004820152fd5b61138892506020809183010191016110d1565b15388061133b565b602483634e487b7160e01b81526041600452fd5b61132e9150606090611328565b906113f057508051156113c657805190602001fd5b60046040517f1425ea42000000000000000000000000000000000000000000000000000000008152fd5b8151158061143b575b611401575090565b6024906001600160a01b03604051917f9996b315000000000000000000000000000000000000000000000000000000008352166004820152fd5b50803b156113f956fea2646970667358221220a180a75939ba88fc4947dd894daebf7ecad435aced77e5d3b4253a0313c6d53364736f6c634300081800332f8788117e7eff1d82e926ec794901d17c78024a50270940304540a733656f0d",
  "linkReferences": {},
  "deployedLinkReferences": {}
}